:100000000000012019100000891000008B10000072
:100010008D1000008F100000911000000000000003
:10002000000000000000000000000000931000002D
:1000300095100000000000009710000099100000CB
:100040009B1000009B1000009B1000009B10000004
:100050009B1000009B1000009B1000009B100000F4
:100060009B1000009B1000009B1000009B100000E4
:100070009B1000009B1000009B1000009B100000D4
:100080009B1000009B1000009B1000009B100000C4
:100090009B1000009B1000009B1000009B100000B4
:1000A0009B1000009B1000009B1000009B100000A4
:1000B0009B1000009B1000000000000000000000EA
:1000C0009B1000009B1000009B1000009B10000084
:1000D0009B1000009B1000009B100000000000001F
:1000E0000000000000000000000000000000000010
:1000F0000000000000000000000000000000000000
:1001000000000000000000000000000000000000EF
:1001100000000000000000000000000000000000DF
:1001200000000000000000000000000000000000CF
:1001300000000000000000000000000000000000BF
:1001400000000000000000000000000000000000AF
:10015000000000000000000000000000000000009F
:10016000000000000000000000000000000000008F
:10017000000000000000000000000000000000007F
:10018000000000000000000000000000000000006F
:10019000000000000000000000000000000000005F
:1001A000000000000000000000000000000000004F
:1001B000000000000000000000000000000000003F
:1001C000000000000000000000000000000000002F
:1001D000000000000000000000000000000000001F
:1001E000000000000000000000000000000000000F
:1001F00000000000000000000000000000000000FF
:100200005468652061766572616765206772616414
:100210006520696E2054544B256420696E20256446
:10022000207761733A2025630A0D0000100000203A
:10023000303132333435363738394142434445461C
:1002400000000000303132333435363738396162DE
:100250006364656600000000286E756C6C29000000
:10026000202020202020202020202020202020208E
:10027000303030303030303030303030303030307E
:1002800043000000504F5349580000002E0000006A
:100290000020202020202020202028282828282056
:1002A000202020202020202020202020202020204E
:1002B00020881010101010101010101010101010B6
:1002C00010040404040404040404041010101010A6
:1002D0001010414141414141010101010101010170
:1002E00001010101010101010101010110101010C2
:1002F0001010424242424242020202020202020242
:100300000202020202020202020202021010101095
:1003100020000000000000000000000000000000BD
:1003200000000000000000000000000000000000CD
:1003300000000000000000000000000000000000BD
:1003400000000000000000000000000000000000AD
:10035000000000000000000000000000000000009D
:10036000000000000000000000000000000000008D
:10037000000000000000000000000000000000007D
:10038000000000000000000000000000000000006D
:01039000006C
:080394009000000001000000D0
:10039C000348044B834202D0034B03B11847704708
:1003AC00B4090020B40900200000000005480649EB
:1003BC000B1AD90F01EBA301491002D0034B03B167
:1003CC0018477047B4090020B40900200000000051
:1003DC0010B5064C237843B9FFF7DAFF044B13B181
:1003EC000448AFF300800123237010BDB409002032
:1003FC0000000000B445000008B5044B1BB10449D3
:10040C000448AFF30080BDE80840CFE700000000CF
:10041C00B8090020B4450000A3F5803A704700BF2E
:10042C00154B002B08BF114B9D46FFF7F5FF002124
:10043C008B460F461148124A121A00F09DFE0C4BC7
:10044C00002B00D098470B4B002B00D09847002076
:10045C00002104000D000B4800F01AFE00F044FED1
:10046C002000290000F074F800F018FE00000800CD
:10047C00000000000000000000000120B409002072
:10048C000C0A0020C910000080B586B000AFF860DF
:10049C00B9607A60BB687B6100233B610AE07B69D1
:1004AC001B78184600F036F97B6901337B613B6998
:1004BC0001333B613B697A689A42F0D87B681846F5
:1004CC001837BD4680BD80B586B000AFF860B96006
:1004DC007A60BB687B6100F03DF90346FB74FB7CE2
:1004EC00002BF8D07B69FA7C1A7001231846183758
:1004FC00BD4680BD80B400AF4FF0A0430C22C3F8C2
:10050C0034274FF0A0430C22C3F838274FF0A043F8
:10051C000C22C3F83C274FF0A0430C22C3F8402711
:10052C004FF0A0430122C3F844274FF0A04301220F
:10053C00C3F848274FF0A0430122C3F84C274FF0D3
:10054C00A0430122C3F8502700BFBD4680BC7047B2
:10055C0080B582B000AFFFF7CDFF00237B6000F0C9
:10056C00A5F800233B604FF0A043D3F810355B0B8C
:10057C0003F00103002B03D1412000F0CBF81DE068
:10058C004FF0A043D3F810359B0B03F00103002B65
:10059C0003D1422000F0BEF810E04FF0A043D3F896
:1005AC001035DB0B03F00103002B07D1422340F283
:1005BC00E67241F28B013B4800F0BAFD00F0CAF83C
:1005CC000346002B30D03B68002B2DD14FF0A043BD
:1005DC00D3F80C354FF0A04243F40033C2F80C357D
:1005EC004FF0A043D3F80C354FF0A04243F48023D6
:1005FC00C2F80C354FF0A043D3F80C354FF0A042A5
:10060C0043F40023C2F80C354FF0A043D3F80C355B
:10061C004FF0A04243F48013C2F80C3501233B6029
:10062C006B2000F077F834E000F094F80346002BD0
:10063C002FD03B68012B2CD14FF0A043D3F80835B9
:10064C004FF0A04243F40033C2F808354FF0A043FA
:10065C00D3F808354FF0A04243F48023C2F8083594
:10066C004FF0A043D3F808354FF0A04243F40023D9
:10067C00C2F808354FF0A043D3F808354FF0A0422C
:10068C0043F48013C2F8083500233B60522000F07D
:10069C0041F8054B7B607B68013B7B607B68002BE2
:1006AC00F9D160E70002000040420F0080B400AFB7
:1006BC004FF0A0430122C3F818274FF0A0430022AB
:1006CC00C3F82027114B0622C3F80C250F4B082228
:1006DC00C3F814250D4B0E4AC3F824250B4B4FF0D1
:1006EC00FF32C3F80825094B4FF0FF32C3F8102531
:1006FC00064B0422C3F80025044B01221A60034B5D
:10070C0001229A6000BFBD4680BC704700200040AB
:10071C000050270080B483B000AF0346FB710C4B34
:10072C0001229A600A4AFB79C2F81C3500BF084BBB
:10073C00D3F81C31002BFAD0054B0122DA60044BA4
:10074C000022C3F81C2100BF0C37BD4680BC70478B
:10075C000020004080B483B000AF0C4B01221A6023
:10076C000023FB71094BD3F80831002B07D0074B42
:10077C000022C3F80821054BD3F81835FB71FB791F
:10078C0018460C37BD4680BC704700BF00200040A7
:10079C0080B483B000AF1E4B1B68B3F1FF3F0AD18E
:1007AC001C4B1B68DBB27B601B4B1B681B0903F0EB
:1007BC000F033B6005E0164B1B687B60174B1B68F7
:1007CC003B607B68062B1DD13B68033B042B17D881
:1007DC0001A252F823F000BFF9070000FD0700004A
:1007EC0001080000050800000908000001230AE0C8
:1007FC00012308E0012306E0012304E0012302E0C9
:10080C00012300E0002318460C37BD4680BC70471E
:10081C0030010010E00F00F0E80F00F03401001080
:10082C0080B483B000AF184B1B68DBB27B60174BF6
:10083C001B681B0903F00F033B607B68062B1DD163
:10084C003B68033B042B17D801A252F823F000BFDE
:10085C007108000075080000790800007D08000090
:10086C008108000001230AE0002308E0002306E0D1
:10087C00002304E0002302E0002300E000231846DC
:10088C000C37BD4680BC7047E00F00F0E80F00F05D
:10089C0080B483B000AF1E4B1B68B3F1FF3F0AD18D
:1008AC001C4B1B68DBB27B601B4B1B681B0903F0EA
:1008BC000F033B6005E0164B1B687B60174B1B68F6
:1008CC003B607B68062B1DD13B68033B042B17D880
:1008DC0001A252F823F000BFF9080000FD08000047
:1008EC0001090000050900000909000001230AE0C4
:1008FC00012308E0012306E0012304E0012302E0C8
:10090C00012300E0002318460C37BD4680BC70471D
:10091C0030010010E00F00F0E80F00F0340100107F
:10092C0080B483B000AF184B1B68DBB27B60174BF5
:10093C001B681B0903F00F033B607B68062B1DD162
:10094C003B68033B042B17D801A252F823F000BFDD
:10095C007109000075090000790900007D0900008B
:10096C008109000001230AE0002308E0002306E0CF
:10097C00002304E0002302E0002300E000231846DB
:10098C000C37BD4680BC7047E00F00F0E80F00F05C
:10099C0080B483B000AF1E4B1B68B3F1FF3F0AD18C
:1009AC001C4B1B68DBB27B601B4B1B681B0903F0E9
:1009BC000F033B6005E0164B1B687B60174B1B68F5
:1009CC003B607B68062B1DD13B68033B042B17D87F
:1009DC0001A252F823F000BFF9090000FD09000044
:1009EC00010A0000050A0000090A000001230AE0C0
:1009FC00012308E0012306E0012304E0012302E0C7
:100A0C00012300E0002318460C37BD4680BC70471C
:100A1C0030010010E00F00F0E80F00F0340100107E
:100A2C0080B483B000AF184B1B68DBB27B60174BF4
:100A3C001B681B0903F00F033B607B68062B1DD161
:100A4C003B68033B042B17D801A252F823F000BFDC
:100A5C00710A0000750A0000790A00007D0A000086
:100A6C00810A000001230AE0002308E0002306E0CD
:100A7C00002304E0002302E0002300E000231846DA
:100A8C000C37BD4680BC7047E00F00F0E80F00F05B
:100A9C0080B483B000AF184B1B68DBB27B60174B84
:100AAC001B681B0903F00F033B607B68062B1DD1F1
:100ABC003B68033B042B17D801A252F823F000BF6C
:100ACC00E10A0000E50A0000E90A0000ED0A000056
:100ADC00F10A000001230AE0002308E0002306E0ED
:100AEC00002304E0002302E0002300E0002318466A
:100AFC000C37BD4680BC7047E00F00F0E80F00F0EB
:100B0C0080B483B000AF1E4B1B68B3F1FF3F0AD11A
:100B1C001C4B1B68DBB27B601B4B1B681B0903F077
:100B2C000F033B6005E0164B1B687B60174B1B6883
:100B3C003B607B68062B1DD13B68033B042B17D80D
:100B4C0001A252F823F000BF690B00006D0B0000EE
:100B5C00710B0000750B0000790B000000230AE0FC
:100B6C00002308E0012306E0012304E0012302E056
:100B7C00012300E0002318460C37BD4680BC7047AB
:100B8C0030010010E00F00F0E80F00F0340100100D
:100B9C0080B483B000AF1E4B1B68B3F1FF3F0AD18A
:100BAC001C4B1B68DBB27B601B4B1B681B0903F0E7
:100BBC000F033B6005E0164B1B687B60174B1B68F3
:100BCC003B607B68062B1DD13B68033B042B17D87D
:100BDC0001A252F823F000BFF90B0000FD0B00003E
:100BEC00010C0000050C0000090C000001230AE0B8
:100BFC00012308E0012306E0012304E0012302E0C5
:100C0C00012300E0002318460C37BD4680BC70471A
:100C1C0030010010E00F00F0E80F00F0340100107C
:100C2C0080B483B000AF1E4B1B68B3F1FF3F0AD1F9
:100C3C001C4B1B68DBB27B601B4B1B681B0903F056
:100C4C000F033B6005E0164B1B687B60174B1B6862
:100C5C003B607B68062B1DD13B68033B042B17D8EC
:100C6C0001A252F823F000BF890C00008D0C00008B
:100C7C00910C0000950C0000990C000001230AE077
:100C8C00012308E0012306E0012304E0012302E034
:100C9C00012300E0002318460C37BD4680BC70478A
:100CAC0030010010E00F00F0E80F00F034010010EC
:100CBC0080B483B000AF164B1B687B60154B1B6870
:100CCC003B607B68062B1DD13B68033B042B17D87C
:100CDC0001A252F823F000BFF90C0000FD0C00003B
:100CEC00010D0000050D0000090D000000230AE0B5
:100CFC00002308E0002306E0012304E0012302E0C6
:100D0C00012300E0002318460C37BD4680BC704719
:100D1C00300100103401001080B483B000AF164BCA
:100D2C001B687B60154B1B683B607B68062B1DD1D9
:100D3C003B68033B042B17D801A252F823F000BFE9
:100D4C00610D0000650D0000690D00006D0D0000C7
:100D5C00710D000000230AE0002308E0002306E0E8
:100D6C00002304E0012302E0012300E000231846E5
:100D7C000C37BD4680BC70473001001034010010A8
:100D8C0080B500AFFFF7C8FF0346002B07D04FF02C
:100D9C0010234FF08042D3F80832C2F8583500BF08
:100DAC0080BD000080B400AF034B044A1A6000BF42
:100DBC00BD4680BC704700BF000000200090D003EF
:100DCC0080B500AFFFF7E4FC0346002B06D07F4B49
:100DDC001B681B0A7E4A03F01F031360FFF720FDFC
:100DEC000346002B02D07B4B7B4A1A60FFF750FD69
:100DFC000346002B06D0794B1B685B0B784A03F03B
:100E0C0007031360FFF78CFD0346002B05D0754BD1
:100E1C00DB68744A23F08073D360FFF7B9FD034697
:100E2C00002B0ED04FF080430022C3F80C214FF062
:100E3C0080430022C3F810214FF080430022C3F8F6
:100E4C003825FFF7EDFD0346002B02D0664B03223D
:100E5C001A60FFF71DFE0346002B0BD0634B0522D7
:100E6C001A60634B01221A60624B00221A60624BBB
:100E7C003F221A60FFF744FE0346002B76D04FF05A
:100E8C0080535E4AD3F80434C2F820354FF08053B7
:100E9C005A4AD3F80834C2F824354FF08053574AD5
:100EAC00D3F80C34C2F828354FF08053534AD3F89A
:100EBC001034C2F82C354FF08053504AD3F8143408
:100ECC00C2F830354FF080534C4AD3F81834C2F87E
:100EDC0034354FF08053494AD3F81C34C2F84035AE
:100EEC004FF08053454AD3F82034C2F844354FF0C4
:100EFC008053424AD3F82434C2F848354FF080531B
:100F0C003E4AD3F82834C2F84C354FF080533B4A54
:100F1C00D3F82C34C2F850354FF08053374AD3F8FD
:100F2C003034C2F854354FF08053344AD3F834344B
:100F3C00C2F860354FF08053304AD3F83834C2F8D9
:100F4C0064354FF080532D4AD3F83C34C2F86835E1
:100F5C004FF08053294AD3F84034C2F86C354FF027
:100F6C008053264AD3F84434C2F87035FFF710FE8C
:100F7C000346002B05D0224B1B68224A03F04F037B
:100F8C001360FFF74DFE0346002B0DD04FF080434E
:100F9C00D3F8003403F00103002B05D04FF080434D
:100FAC006FF00102C3F80024FFF782FE0346002B0A
:100FBC0005D0154B1B68144A43F480631360FFF78C
:100FCC00DFFEFFF7EFFE00BF80BD00BF2403001063
:100FDC004035014074C007400DF0ADBA440200101A
:100FEC003C050040F0ED00E0A0050040105600402C
:100FFC0088560040185600401456004000C000406F
:10100C0058020010E40E00403C1700400F49104AF3
:10101C00104B00F010F81049104A114B00F00BF86F
:10102C001049114A114B00F006F81149114A124BA4
:10103C0000F001F806E0521A03DD043A9858885083
:10104C00FBDC7047FFF7BCFEFFF7EAF9000000205D
:10105C00B409002000460000B4090020B4090020A7
:10106C00B44F0000B4090020B4090020B44F0000B4
:10107C00B4090020B4090020B44F0000FEE7FEE7DD
:10108C00FEE7FEE7FEE7FEE7FEE7FEE7FEE7FEE72C
:10109C00002301461A46184600F0CABF08B50021C5
:1010AC00044600F0F9FF044B1868C36B03B1984772
:1010BC00204603F065FA00BF2C02000038B5084B3F
:1010CC00084D5B1B9C1007D0043B1D44013C55F89C
:1010DC0004399847002CF9D1BDE8384003F05CBACC
:1010EC00B4450000B045000070B50D4E0D4D761B9B
:1010FC00B61006D0002455F8043B01349847A6429C
:10110C00F9D1094E094D761B03F03CFAB61006D006
:10111C00002455F8043B01349847A642F9D170BD20
:10112C009C4500009C450000A44500009C45000027
:10113C000FB400B5074983B004AB086853F8042B0F
:10114C008168019300F0B0F803B05DF804EB04B0D3
:10115C00704700BF080000200EB400B582B003AB8E
:10116C00816853F8042B019300F09EF802B05DF8EF
:10117C0004EB03B0704700BF830730B548D0541E52
:10118C00002A3FD0CAB2034601E0013C3AD303F82F
:10119C00012B9D07F9D1032C2DD9CDB245EA05259C
:1011AC000F2C45EA054536D9A4F1100222F00F0C9C
:1011BC0003F1200EE6444FEA121C03F1100242E93F
:1011CC00045542E9025510327245F8D10CF1010276
:1011DC0014F00C0F03EB021204F00F0C13D0ACF153
:1011EC00040323F003030433134442F8045B9342D7
:1011FC00FBD10CF003042CB1CAB21C4403F8012B34
:10120C009C42FBD130BD64461346002CF4D1F9E767
:10121C0003461446BFE71A46A446E0E72DE9F84F0B
:10122C004B6E9C0490462DD59368126843B38B4645
:10123C00064602F1080959E9025A5FEA9A0715D0E5
:10124C00043D002401E0A7420ED055F8041F5A4675
:10125C00304601F0B1F9431C04F10104F3D1002331
:10126C00C8E90133BDE8F88FD8F808302AF0030A32
:10127C00A3EB0A03C8F8083009F10809002BDAD1EE
:10128C000020ECE701F020FB0023C8E90133BDE8A6
:10129C00F88F00BF10B494680CB110BCBEE72046A8
:1012AC00546010BC704700BF2DE9F04FABB01C462A
:1012BC00884617460693834618B1836B002B00F0C3
:1012CC002582B8F90C1088048AB20AD4D8F8643094
:1012DC0041F4005223F40053A8F80C20C8F86430F1
:1012EC0092B2130740F1A480D8F81030002B00F014
:1012FC009F8002F01A020A2A00F0A8801AAB0D9304
:10130C000023CDE90E3309930DF1680905933B7861
:10131C00002B00F00D813C4604E014F8013F002B3B
:10132C0000F0E880252BF8D1E51B40F0E580237810
:10133C00002B00F0FD804FF0000200218DF82F20D3
:10134C00637804914FF0FF32671C084602928A467C
:10135C000137A3F12002582A00F2F780DFE812F0DF
:10136C003302F500F5002F02F500F500F500F5004D
:10137C00F500F500E5012B02F500F001F401F50094
:10138C0027025900590059005900590059005900B9
:10139C0059005900F500F500F500F500F500F500D1
:1013AC00F500F500F500F5000E02F500F500F5006E
:1013BC00F500F500F500F500F500F500F5009400DA
:1013CC00F500F500F500F500F5008400F500F500DA
:1013DC004802F500F500F500F500F500F500F50004
:1013EC00F500F500F5003A02A701F500F500F5004F
:1013FC008902A701F500F5007F02F500690296004D
:10140C00C902C502F500A402F5008600F500F5003E
:10141C008D02A3F13002002417F8013B04EB840485
:10142C0002EB4404A3F13002092AF5D9049490E7A5
:10143C004146584600F092FD002840F03985B8F836
:10144C000C2002F01A020A2A7FF458AFB8F90E30B9
:10145C00002BFFF653AF23463A46414658462BB075
:10146C00BDE8F04F00F044BD4AF0100A1AF020011C
:10147C0000F00F81069B073323F00703596853F8DC
:10148C00080B069301230EE04AF0100A1AF0200113
:10149C0000F0F280069B073323F00703596853F8DA
:1014AC00080B069300234FF000028DF82F2000222A
:1014BC000792029A541C00F02F822AF080040194A7
:1014CC0050EA010440F02682002A40F09584002B5B
:1014DC0040F00E841AF00103039340F03E841AACE2
:1014EC00DDE902639E42B8BF1E46079B002B3ED02F
:1014FC0001363CE0E51B1BD00E9B0F9A01332A44AE
:10150C00072BC9E900750F920E9305DC09F1080948
:10151C00059B2B4405930AE7002A00F0D1830DAA02
:10152C0041465846FFF77AFE30B90DF16809EFE7EE
:10153C000F9B002B40F08584B8F80C305B0600F153
:10154C00B78405982BB0BDE8F08F002940F0758466
:10155C00002BEDD08DF8403001264FF000038DF8B4
:10156C002F30039610AC0023CDF804A00293019BFE
:10157C0013F002030793019B18BF023613F0840388
:10158C00089304D1049B9D1B002D00F3DB82DDE945
:10159C000E1001F1010C9DF82F3093B101300DF1BB
:1015AC002F030121BCF1070FCDE90EC0C9F80030A3
:1015BC00C9F8041000F3A682614609F108090CF180
:1015CC00010C079BEBB10CAB0230C9F80030BCF13D
:1015DC00070F4FF00203CDE90EC0C9F8043040F3F9
:1015EC00AB82002800F066830DAA41465846FFF7EF
:1015FC0015FE0028A0D1DDE90E100DF1680901F1EE
:10160C00010C089B802B00F0C881DDE902329D1A89
:10161C00002D00F31C82039BC9F800401844BCF158
:10162C00070FCDE90EC0C9F8043040F3B381002890
:10163C0000F0D2820DAA41465846FFF7EFFD002874
:10164C007FF47AAF0F980DF16809019B5A0704D506
:10165C00049B9C1B002C00F3C982DDE90423B242DD
:10166C00ACBF9B189B190593002840F036820023D1
:10167C000E930DF168094AE61AF0100349D11AF0DD
:10168C00400146D0069A52F8040B0692194680B2D5
:10169C0009E71AF0100342D11AF040013FD0069A24
:1016AC0052F8040B0692194680B20123FBE600297E
:1016BC0040F0E5831AF0200F069B68D0073323F027
:1016CC0007031A465B6852F8080B06921946002B62
:1016DC00C0F20483029B013300F08A839DF82F3003
:1016EC00079350EA01032AF0800A00F054830A2879
:1016FC0071F1000380F01283303001238DF8670004
:10170C00CDF804A003930DF16704E9E600F0E0FEC8
:10171C00D7E5069B53F8040B06930B46C3E6069BD2
:10172C0053F8040B06930123BDE6069B53F8042BD8
:10173C000492002A80F20D83049A0693524204927A
:10174C003B784AF0040A03E63C4614F8013B2A2B8A
:10175C0000F0B383A3F13002092A274698BF002476
:10176C0000F2938317F8013B04EB840402EB44046E
:10177C00A3F13002092AF5D90294EAE5002940F0D8
:10178C0088834AF0100A1AF0200F069B96D153F862
:10179C00040B06931AF0100F40F09B821AF0400FC6
:1017AC0000F0978240F3C0310B4600B28FE73B78D4
:1017BC004AF0800ACCE53B7801212B20C8E53B7828
:1017CC004AF0010AC4E53B7800287FF4C1AD012141
:1017DC002020BDE5069B4FF000028DF82F2001263E
:1017EC0053F8042B8DF840200693039610ACBAE600
:1017FC00002940F05183BD4A09921AF0200144D0CF
:10180C00069A073222F00702516852F8080B06922A
:10181C001AF0010F0BD050EA010208D08DF83130CC
:10182C0030238DF830304AF0020A02233BE60223C3
:10183C0039E6002940F026831AF0200F40F09A82F6
:10184C001AF0100F40F0CC821AF0400F00F0C88252
:10185C00069B059953F8042B0693118057E53B78AA
:10186C006C2B03BF7B784AF0200A01374AF0100A30
:10187C006EE53B784AF0400A6AE5002940F0FC82AC
:10188C009B4A09921AF02001BAD11AF0100240F0CA
:10189C001B821AF0400100F01782069C54F8040BCE
:1018AC000694114680B2B3E7069D55F8044B4FF0F1
:1018BC0000038DF82F30002C00F0A482029B5E1CDC
:1018CC0000F072821A460021204601F06BFD0028C0
:1018DC0000F0C282031B03939DF82F300793002363
:1018EC000695CDF804A00293FAE53B784AF0200A5D
:1018FC002EE5069B53F8040B069330238DF83030FD
:10190C0078238DF831307A4B09934AF0020A002182
:10191C000223C8E5DDF804A0012B3FF4E8AE022B4E
:10192C001AAC12D1099A00F00F030009D35C04F829
:10193C00013D40EA0170090950EA0103F3D11AABE9
:10194C001B1BCDF804A00393CAE500F00703C008E5
:10195C0040EA4170C908303350EA0105224604F8C8
:10196C00013DF2D11AF0010FE9D0302BE7D0302332
:10197C00023A04F8013C1AAB9B1ACDF804A003936D
:10198C001446ADE503981A9401231B900F900E9307
:10199C000DF1680909F1080957E6049B9D1B002D00
:1019AC007FF733AE102D40F37F82DFF848A152460B
:1019BC001023A246144607E001F1020E09F10809B2
:1019CC001146103D102D1DDD4A1C1030072AC9E9A7
:1019DC000043CDE90E20EFDD0DAA002800F08C802D
:1019EC00414658460DF16809FFF718FC00287FF4B2
:1019FC00A3ADDDE90E10103D102D01F1010E4FF0DD
:101A0C001003E1DC234654469A462844BEF1070FE6
:101A1C00CDE90EE0C9F800A0C9F8045040F3A48148
:101A2C00002800F0F8810DAA41465846FFF7F6FB56
:101A3C0000287FF481ADDDE90232DDE90E109D1A3C
:101A4C00002D01F1010C0DF168097FF7E4AD102DAB
:101A5C00DFF8A0A02BDD52461023A246144607E067
:101A6C0001F1020C09F108091146103D102D1BDD86
:101A7C004A1C1030072AC9E90043CDE90E20EFDDDE
:101A8C000DAA414618B358460DF16809FFF7C6FB7D
:101A9C0000287FF451ADDDE90E10103D102D01F141
:101AAC00010C4FF01003E3DC234654469A462844BD
:101ABC00BCF1070FCDE90EC0C9F800A0C9F804505D
:101ACC0000F3E38009F108090CF1010CA3E54FF0D8
:101ADC00010C01460DF16809C7E70DAA41465846AD
:101AEC00FFF79CFB00283FF4C2AD25E53002000057
:101AFC0044020000700200004FF0010E01460DF18F
:101B0C0068095EE7002800F0D2800DAA41465846CD
:101B1C00FFF784FB00287FF40FADDDE90E100DF10B
:101B2C00680901F1010C4CE502200CAB1B901A93D7
:101B3C004FF0010C0DF16809614609F1080901F13A
:101B4C00010C5EE5102D40F39181DFF804A3DDE973
:101B5C000EC052461023A2466146144607E001F11E
:101B6C00020C09F108091146103D102D1BDD4A1C11
:101B7C001030072AC9E90043CDE90E20EFDD0DAA8C
:101B8C0020B3414658460DF16809FFF747FB002882
:101B9C007FF4D2ACDDE90E10103D102D01F1010CDB
:101BAC004FF01003E3DC2346614654469A46284422
:101BBC000729CDE90E10C9F800A0C9F8045000F3AC
:101BCC009C8009F1080901F1010CE4E401464FF095
:101BDC00010C0DF16809C7E7019B0E9059074CD514
:101BEC00049B9C1B002C48DD0DF16809102C40F364
:101BFC005681DFF85CA20E9A53461025B2461E465B
:101C0C0006E0911C09F108091A46103C102C19DD4C
:101C1C00531C1030072BC9E90065CDE90E30F0DDFF
:101C2C000DAA28B341465846FFF7F8FA00287FF46E
:101C3C0083ACDDE90E20103C102C02F101010DF1FA
:101C4C006809E5DC334656469A4620440729C9E91B
:101C5C0000A4CDE90E107FF700AD70B10DAA41467E
:101C6C005846FFF7DBFA00287FF466AC0F98F4E4D3
:101C7C00012102460DF16809C7E7DDE90423B242F0
:101C8C00ACBF9B189B190593F1E400283FF47AAE86
:101C9C000DAA41465846FFF7C1FA00287FF44CAC18
:101CAC000E9B0F9803F1010C0DF16809B3E4079B2F
:101CBC00002B69D14FF0010C01460DF16809A0E42D
:101CCC000E920DF1680923E4069A52F8040B069261
:101CDC009EE5C1170B46002BBFF6FCAC2D234042F2
:101CEC008DF82F30079361EB41010123FFF7E1BB26
:101CFC00029B03931AACFFF7F3BB002862D00DAA2A
:101D0C0041465846FFF78AFA00287FF415ACDDE906
:101D1C000E100DF1680901F1010C3CE41AAC0A2219
:101D2C00002306460D4602F07BFA303204F8012DF2
:101D3C000023304629460A2202F072FA0A2E75F167
:101D4C000003ECD21AAB1B1BCDF804A00393FFF7D6
:101D5C00C7BB06933B78FFF7FBBA30238DF867308F
:101D6C000DF16704FFF7BCBB09F108090EF1010C7A
:101D7C0071464AE4DDE9050353F8041B0693C217C8
:101D8C00C1E90002FFF7C3BA02200CAB1B901A93F7
:101D9C000DF16809D1E6029B002B7FF4ADACCDF8B8
:101DAC0004A00393FFF79BBB20460695CDF804A037
:101DBC0002F020F89DF82F30079300230390029334
:101DCC00FFF78EBB9DF82F3063B301239C461B930A
:101DDC000DF12F031A930DF168096046FFF7ECBB68
:101DEC00069B059953F8042B11600693FFF78FBAE5
:101DFC009DF82F3007937AE4012BDDF804A07FF4D3
:101E0C008EAD79E4029E134C0695062E28BF06264D
:101E1C000396FFF7A8BB4FF0010C01460DF16809C2
:101E2C00FFF7F3BB079B002B7FF47EAE01464FF010
:101E3C00010C0DF16809FFF7E8BB8DF82F00FFF7D7
:101E4C0087BB0DAA41465846FFF7E8F9FFF774BB6C
:101E5C006002000058020000029B03939DF82F3093
:101E6C000695CDE901A00793FFF73ABB0E990F98A1
:101E7C00DFF85CA001319AE68DF82F0000E58DF8B3
:101E8C002F0017E48DF82F00D6E400220292FFF702
:101E9C0060BA8DF82F0074E48DF82F00ABE40E9926
:101EAC00DFF82CA00131D0E6DFF828A0E646ACE53F
:101EBC004FF0FF330593FFF744BB069A7B78274618
:101ECC0052F8044B069244EAE4740294FFF740BAC9
:101EDC00600200007002000010B4044C84461346EB
:101EEC00206810BC0A466146FFF7DEB908000020E6
:101EFC0070B50C468989ADF58D6D21F00201ADF8F8
:101F0C000C10616E1991E189ADF80E10E169079121
:101F1C00616A09911AA9009104914FF480610291B0
:101F2C0005910021069169460646FFF7BDF9051E8D
:101F3C0007DB6946304600F0A1F9002818BF4FF0C6
:101F4C00FF35BDF80C305B0603D5A38943F0400385
:101F5C00A38128460DF58D6D70BD00BF38B5334B90
:101F6C001B6805460C460BB19A6B12B3B4F90C30D6
:101F7C0018079AB225D5216900292DD012F001003D
:101F8C0007D00020A06060694042A06139B10020F8
:101F9C0038BD950758BF6069A0600029F7D11206BB
:101FAC0058BF0846F4D543F04003A3814FF0FF30EF
:101FBC0038BD184600F08CFAB4F90C3018079AB2F8
:101FCC00D9D4D1062AD5520714D4216943F0080379
:101FDC00A3819AB20029D1D102F42070B0F5007F10
:101FEC00CCD02146284600F06DFEB4F90C302169A6
:101FFC009AB2C3E7216B51B104F14002914204D073
:10200C00284600F05BFBB4F90C30002222632169F6
:10201C000022C4E9001223F02403D7E7092243F07D
:10202C0040032A604FF0FF30A38138BD0800002028
:10203C0070B4184C2568D5F848411CB365681F2D41
:10204C0025DC38B9AB1C0135656044F82310002041
:10205C0070BC704704EB850C0228CCF88820D4F8AF
:10206C0088614FF0010202FA05F246EA0206C4F852
:10207C008861CCF80831E5D1D4F88C311343C4F81D
:10208C008C31DFE705F5A674C5F84841D6E74FF06B
:10209C00FF30DDE72C0200002DE9F04F294B1F68C3
:1020AC0083B0D7F848610190B6B18B464FF0010868
:1020BC004FF000097468651E0ED4013406EB8404DD
:1020CC00BBF1000F0BD0D4F800315B4507D0013DBC
:1020DC006B1CA4F10404F3D103B0BDE8F08F73685A
:1020EC002268013BAB420CBF7560C4F80090002A1B
:1020FC00EDD0D6F88801D6F804A008FA05F1014213
:10210C000BD190477268524512D1D7F84831B3427F
:10211C00DDD01E46002ECDD1DEE7D6F88C01014273
:10212C000BD1D4F880100198904772685245ECD0CE
:10213C00D7F84861002EBDD1CEE7D4F88000904787
:10214C00E0E700BF2C020000024B13B10248FEF77F
:10215C009FBF704700000000C9100000B1F90C20AF
:10216C00F8B50C461107074642D4636842F4006286
:10217C00002BA28159DDA56A002D54D000233E68A6
:10218C003B6093B212F4805253D1E169012338467B
:10219C00A847421C63D0A389A56A5B0705D5636871
:1021AC00C01A236B0BB1E36BC01AE1690246002322
:1021BC003846A847411C3ED13B68002B3BD01D2B19
:1021CC0001D0162B52D1A3892269226023F400631B
:1021DC0000216160A381216B3E6021B304F14003B7
:1021EC00994202D0384600F069FA00202063F8BD0D
:1021FC002669C6B193B2256826609A070CBF63693D
:10220C000023AD1BA3600CE0D4F824C0E1692B467D
:10221C0032463846E047B0F1000CA5EB0C0566449D
:10222C0016DD002DF0DC0020F8BDE36B002BA2DCEA
:10223C00F9E7206DB1E7B4F90C302269226023F480
:10224C000063A3810022DB046260C4D52065C2E771
:10225C00A38943F040034FF0FF30A381F8BD3B68E6
:10226C00002B98D01D2B06D0162B04D0A38943F03D
:10227C004003A381F8BD3E60D5E700BF38B50D46DD
:10228C00044608B1836B1BB1B5F90C0030B938BDED
:10229C0000F01EF9B5F90C000028F8D029462046AC
:1022AC00BDE83840FFF75ABF38B5B8B10F4B1D68C1
:1022BC0004460DB1AB6B4BB1B4F90C0000B938BD91
:1022CC0021462846BDE83840FFF748BF284600F0B5
:1022DC00FFF8B4F90C000028F1D0F1E7044B0549E4
:1022EC001868BDE8384000F083BC00BF080000202F
:1022FC002C0200008922000000207047014900F0E8
:10230C0077BC00BF15410000002070472DE9F84F45
:10231C002D4A4668C26300240323C0E9B84307462C
:10232C0000F53B720423C0F8E8222146C6E90243BB
:10233C000822C6E90044C6E904447466B46106F197
:10234C005C00FEF719FFDFF884B0BD68DFF880A0F1
:10235C00DFF88090DFF88080204BC6F824A0C6E917
:10236C00076BC6F82890C6F82C800822EB60C5E9EC
:10237C000044C5E904446C66AC60AC61214605F1CF
:10238C005C00FEF7F9FEC5E9075BC5E909A9C5F8CC
:10239C002C80FD68124BEB60C5E90044C5E9044490
:1023AC006C66AC60AC612146082205F15C00FEF75E
:1023BC00E3FE0123C5E9075BC5E90A98C5F824A02B
:1023CC00BB63BDE8F88F00BF09230000813A000011
:1023DC00A93A0000E93A0000093B0000090001009D
:1023EC001200020070B568224D1E02FB05F50E4668
:1023FC0005F1740100F006FD044640B100210C30DB
:10240C00C4E90016A06005F16802FEF7B5FE20468F
:10241C0070BD00BF274B2DE9F0411E68B36B07461A
:10242C005BB306F538764FF00408D6E90134013B6E
:10243C0004D51EE05A1C04F168041AD0B4F90C50EF
:10244C00013B002DF6D11C4B6566C4E90055C4E96F
:10245C000253C4E90455A5610822294604F15C0025
:10246C00FEF78AFEC4E90C55C4E911552046BDE8B7
:10247C00F08135682DB12E46D7E73046FFF746FF81
:10248C00CFE74FF4D671384600F0BCFC044668B177
:10249C000560C0F804800C302946A06025464FF436
:1024AC00D072FEF769FE34602E46BEE70C23306016
:1024BC003B60DBE72C0200000100FFFF024B0349ED
:1024CC00186800F095BB00BF2C02000015410000FD
:1024DC00836B03B1704719E7704700BF704700BFAB
:1024EC00704700BF704700BF024B0349186800F0EB
:1024FC005FBB00BF0800002005230000024B03490E
:10250C00186800F055BB00BF080000201523000020
:10251C002DE9F04383B007468846144600F0ACFB27
:10252C00012803D108F1FF33FE2B37D9424604F1C1
:10253C005C0301A9384601F02FFD421C064633D03E
:10254C0038B39DF804C00DF10509002509E0236896
:10255C005A1C226083F800C00135B54219D219F813
:10256C0001CBA368013B002BA360F0DAD4F818E090
:10257C00734561462246384602DBBCF10A0FE6D1B0
:10258C0001F0A6FC431CE7D10646304603B0BDE87B
:10259C00F0834646304603B0BDE8F0835FFA88FC12
:1025AC008DF804C00646CEE7A389304643F04003BD
:1025BC00A38103B0BDE8F083B2F90C3013F4005FD3
:1025CC000AD110B4546E43F4005344F400545466CE
:1025DC00938110BCFFF79CBFFFF79ABF0E4B70B5F1
:1025EC001E6805460C460EB1B36B8BB1B4F90C30BA
:1025FC009A0406D4626E43F4005342F40052A38151
:10260C006266224629463046BDE87040FFF780BF1F
:10261C003046FFF75DFFE9E708000020F8B5244FCE
:10262C000C46064601F024F8BA685568C4F57E637A
:10263C000F3325F003052B4423F47F6323F00F03A2
:10264C00A3F58054B4F5805F07DB0021304601F020
:10265C00FFF9BB682B44984204D0304601F00AF8CD
:10266C000020F8BD6142304601F0F2F901300DD086
:10267C00104ABB682D1B45F001055D6013683046A0
:10268C001B1B136000F0F6FF0120F8BD0021304643
:10269C0001F0DEF9BA68831A0F2BDEDD43F001037B
:1026AC005360054B03491B68C01A0860D5E700BF8F
:1026BC00A4050020D4090020AC090020002961D019
:1026CC00F8B50C46064600F0D3FF54F8042C7B4FAB
:1026DC00A4F1080522F0010105EB010CB868DCF847
:1026EC000430604523F0030300F08B80D207CCF854
:1026FC00043032D454F8082CAD1A1144AA6807F1EE
:10270C00080082426AD00CEB0304D4F804E0EC68B5
:10271C00D4601EF0010FA26000F0978041F001031D
:10272C006B60CCF80010B1F5007F35D27A68CB081D
:10273C0048090121013381401143796007EBC30241
:10274C0057F83310083AC5E9021247F83350CD60F8
:10275C003046BDE8F84000F08DBF0CEB0302526828
:10276C00D00710D4194407F10800DCF80830834274
:10277C0073D0DCF80C20DA60936041F001036B60DD
:10278C006950D0E7704741F00103B1F5007F44F880
:10279C00043CCCF80010C9D3B1F5206F4FEA51239B
:1027AC0048D28B0903F1390003F13802C300F81841
:1027BC00FB580838984259D05A6822F003028A42D2
:1027CC0002D99B689842F7D1D868C5E90230856078
:1027DC00DD603046BDE8F84000F04CBF0CEB030266
:1027EC005268D20763D40B44DCE90212CA609160D0
:1027FC0043F001026A603046EB50BDE8F84000F04F
:10280C0039BF0B44D10707D454F8082CAD1A134424
:10281C00D5E90212CA60916043F001026A60284A4D
:10282C00BD6012689A4293D8264B30461968FFF760
:10283C00F5FE8DE7142B0AD9542B1FD80B0B03F183
:10284C006F0003F16E02C300B1E719448DE703F189
:10285C005C0003F15B02C300A9E741F00103C7E987
:10286C000455C5E902006B60695071E779689210F4
:10287C00012404FA02F20A437A60A6E7B3F5AA7FB0
:10288C0006D8CB0B03F1780003F17702C3008EE777
:10289C0040F25452934206D88B0C03F17D0003F1A5
:1028AC007C02C30083E74FF47E737E227FE741F006
:1028BC0001036B60CCF800104AE700BFA4050020B0
:1028CC00B0090020D00900209368002B00F0818013
:1028DC002DE9F04FB1F90C300C461907804683B046
:1028EC00174698B223D523690BB310F002033D6849
:1028FC002BD04FF0000ADFF8B4B256465E45334693
:10290C00524628BF5B464046002E4FD0E169D4F8B2
:10291C0024C0E047002852DDBB681B1A8244361ADB
:10292C00BB60002BEAD1002003B0BDE8F08F21463C
:10293C004046FFF713FB002840F03481B4F90C300B
:10294C003D6898B210F00203D3D110F0010942D1C6
:10295C004E463EB38205D4F808B040F18180B345B1
:10296C005A4600F2B18010F4906F40F0BE8020689F
:10297C000192494600F000FEA3682168019AA3EB7E
:10298C000B030A44B246A36022600026B868A0EB91
:10299C000A00D144B8600028C5D0B4F90C0080B24C
:1029AC00002ED7D1D5E900960835D2E7D5E900A697
:1029BC000835A3E721464046FFF760FC80B3B4F925
:1029CC000C3043F040034FF0FF30A38103B0BDE85F
:1029DC00F08F002070471E46AA46994618461D46A1
:1029EC0056B388B34A46D4E904132068B24228BFD0
:1029FC003246884205D9A16803EB010B5A4500F316
:102A0C00A780934264DCE169D4F824C02A4640468E
:102A1C00E047B0F1000BD2DDB9EB0B09CAD00120B5
:102A2C00BB68A3EB0B035D44A6EB0B06BB60002B52
:102A3C003FF479AF002ED4D10AF1080353E90256C2
:102A4C009A460833002EF9D032460A21284600F067
:102A5C00A9FC002800F09D800130A0EB0509C1E71E
:102A6C0020682369984217D86369B34214D86FF071
:102A7C000042B24228BF3246E16992FBF3F2D4F82D
:102A8C0024C002FB03F340464A46E047B0F1000A7B
:102A9C0095DDA6EB0A0679E7B345DA4628BFB246C0
:102AAC005246494600F068FDA3682268A3EB0A036E
:102ABC005244A3602260002BEBD121464046FFF725
:102ACC00DDFB0028E5D07AE72068B34632464FE7B5
:102ADC002946019200F050FD019AA3689B1AA3604D
:102AEC00236813442360934696E723682169A3EB7C
:102AFC00010B636903EB430A0AEBDA7A0BF101036E
:102B0C004FEA6A0A33445345524684BF9A465246AA
:102B1C0043052CD51146404600F074F900283BD0F3
:102B2C005A462169019000F08DFCA289019B22F488
:102B3C00906242F08002A28103EB0B002361AAEBAE
:102B4C000B03C4F814A0A3602060B34632460FE711
:102B5C0029465A4600F010FD23685B442360214649
:102B6C004046FFF78BFB00283FF456AF27E7404663
:102B7C0000F082FD03460028DED121694046FFF7B4
:102B8C009DFDB4F90C300C2223F08003C8F8002012
:102B9C0017E7721C914626E70C22B4F90C30C8F8E2
:102BAC0000200EE74FF0FF30BEE600BF00FCFF7FB9
:102BBC002DE9F041884600F538770026D7E9015415
:102BCC00013D0FD4A389012B05F1FF3506D9B4F9CA
:102BDC000E300133204601D0C04706436B1C04F174
:102BEC006804EFD13F68002FE8D13046BDE8F08192
:102BFC002DE9F8430746884600F538764FF0000972
:102C0C00D6E90154013D11D4A389012B05F1FF35FF
:102C1C0008D9B4F90E300133214603D03846C047E9
:102C2C0049EA00096B1C04F16804EDD13668002EEA
:102C3C00E6D14846BDE8F88342B110B50B491046C1
:102C4C00144600F06BFF18B9094810BD08487047CE
:102C5C000749204600F062FF0028F5D005492046C0
:102C6C0000F05CFF0028EFD0002010BD84020000B3
:102C7C008002000040020000014B93F828017047CD
:102C8C003804002041B110B50C4620460A4900F02A
:102C9C0045FF18B9094810BD084870470749204638
:102CAC0000F03CFF0028F5D00549204600F036FF27
:102CBC000028EFD0002010BD84020000800200002C
:102CCC00400200002DE9F0418B890C46990796B023
:102CDC0008D504F143030122C4E90432236016B081
:102CEC00BDE8F081B4F90E100029064627DB6A46D0
:102CFC0001F042FA002821DB019D05F47045A5F591
:102D0C000055B5FA85F54FF480686D094FF40067EE
:102D1C004146304600F076F8B4F90C30F0B1204A58
:102D2C00F26343F08003C4F81480A3812060206117
:102D3C0035BB3B43A38116B0BDE8F081A38913F0EA
:102D4C00800519D04FF040084146304600F05AF843
:102D5C000025B4F90C302F460028E0D19A05BED4DA
:102D6C0023F0030304F1430243F002030121C4E9FD
:102D7C000421A3812260B2E74FF480682F46C7E795
:102D8C00B4F90E10304601F00DFA10B9B4F90C304C
:102D9C00CFE7A38923F0030343F001031BB2C8E779
:102DAC000923000070B50C46B1F90E10002996B03D
:102DBC0015461E4614DB6A4601F0DEF900280FDBCF
:102DCC00019A02F47042A2F50052B2FA82F24FF468
:102DDC00806352094FF4006032602B6016B070BDF6
:102DEC00B4F90C10002311F08000336004D04022A1
:102DFC0018462A6016B070BD4FF480632B6016B075
:102E0C0070BD00BF2DE9F04F01F10B06162E83B0FB
:102E1C00044624D8102900F2BA8000F029FC1026B0
:102E2C0018220220B74F3A44A2F1080153688B4292
:102E3C0000F0BA805A68D96822F003021A449D68DF
:102E4C00E9608D60516841F001012046516003F149
:102E5C00080500F00FFC284603B0BDE8F08F36F0F3
:102E6C00070600F19480B14200F2918000F000FC62
:102E7C00B6F5FC7FC0F09681730A00F08F80042BAE
:102E8C0000F26B81B30903F1390003F1380CC30074
:102E9C009C4F3B44A3F108055B689D4206D10CE0B6
:102EAC00002980F22B81DB689D4206D05A6822F003
:102EBC000302911B0F29F3DD60463D69DFF848C220
:102ECC0065457CD06A6822F00302931B0F2B00F33C
:102EDC007781002BC7E904CC80F26881B2F5007FC2
:102EEC0080F01681D308796801334FEA521E012213
:102EFC0002FA0EF20A4357F833E0C5F808E007EB84
:102F0C00C3010839E9607A6047F83350CEF80C50A9
:102F1C00831001219940914257D8114206D120F0DB
:102F2C0003004900114200F10400FAD007EBC0097C
:102F3C004D468646D5F80C80454508D119E1002B45
:102F4C0080F22081D8F80C80454500F01281D8F829
:102F5C00042022F00302931B0F2BF0DD2046D8E94E
:102F6C00025408EB060146F00106C8F80460EC6058
:102F7C00A56043F00104C7E90411C1E902CC4C601F
:102F8C0048F8023000F076FB08F1080502E00C234B
:102F9C0023600025284603B0BDE8F08F4FF4007382
:102FAC0040204FF03F0C73E7D3689A4208BF0230C1
:102FBC007FF440AF3D69DFF850C1654582D17A6836
:102FCC008310012199409142A7D9BD686B6823F009
:102FDC000308464503D8A8EB06030F2B7EDCDFF86D
:102FEC002C91D7F80824D9F800300132334405EB82
:102FFC00080A00F02F8103F580530F3323F47F6B05
:10300C002BF00F0B5946204600F022FD411C0246C6
:10301C0000F0EF80824500F2EA80D9F804105944A0
:10302C00C9F804100B4600F04B81D7F80814013195
:10303C001BBFA2EB0A0A5344C7F80824C9F8043092
:10304C0012F0070300F01281C3F108010A44C3F522
:10305C00805193440831A1EB0B01C1F30B0A51468B
:10306C0020460192009300F0F3FC421CDDE9003293
:10307C0000F04B81831A03EB0A0BD9F80400BA60F9
:10308C004BF001030AEB0001BD425360C9F8041078
:10309C0000F02281B8F10F0F40F220816B68A8F18B
:1030AC000C0020F0070003F0010303436B604FF0AA
:1030BC00050C2B180F28C3E901CC00F22D815368A5
:1030CC001546D9F82C208A42D9F8302038BFC9F8D7
:1030DC002C108A4238BFC9F830108CE0AA1943F082
:1030EC00010346F001066E602046BA60536000F0A2
:1030FC00C1FA0835284603B0BDE8F08FD9681A44E8
:10310C009DE600BFA4050020AC050020D0090020DE
:10311C00B2F5206F4FEA522363D3142B00F2B88020
:10312C0003F15C01C9005B3307EB010E7958AEF17A
:10313C00080E8E4500F091804B6823F003039342F8
:10314C0002D989688E45F7D1D1F80CE07A68C5E9C7
:10315C00021ECEF80850CD60DAE6142B59D9542B48
:10316C0000F29E80330B03F16F0003F16E0CC30071
:10317C008EE60EF1010E1EF0030F05F108057FF42B
:10318C00D9AE51E0424445465368D8F80C1043F090
:10319C000103536055F8083F2046D9608B6000F05E
:1031AC0069FAF7E6F00806F108023BE62A442046E5
:1031BC00536843F001035360083500F05BFAE9E60D
:1031CC00A919204646F0010643F001046E60C7E9D8
:1031DC000411C1E902CC4C60AB5000F04BFA08353D
:1031EC00D8E6930903F13901C90038339CE7BD4295
:1031FC0060D0BD686B6823F0030B5E45ABEB060338
:10320C0002D80F2B3FF76AAF204600F033FA0025A7
:10321C00C0E603F15C0003F15B0CC30038E659F81F
:10322C0008394B4540F0968010F0030F00F1FF3049
:10323C00F5D17B6823EA01037B60490099423FF694
:10324C00C4AE19B9C1E649000EF1040E1942FAD008
:10325C0070466BE603F1100BD4E69A104FF00108A0
:10326C007B6808FA02F21A437A6070E702EB0B01F2
:10327C004942C1F30B0A514620460193009200F0DB
:10328C00E7FB431CDDE900237FF4F4AE9A46F4E639
:10329C00542B26D8130B03F16F01C9006E3343E78F
:1032AC00B3F5AA7F26D8F30B03F1780003F1770C62
:1032BC00C300EDE5D9F804305B44C9F80430B4E63A
:1032CC00CAF30B0000287FF4B0AEBD6808EB0B030B
:1032DC0043F001036B60F4E61546F2E601235360FC
:1032EC0092E7B3F5AA7F21D8D30B03F17801C9007B
:1032FC00773319E740F25452934221D8B30C03F1BF
:10330C007D0003F17C0CC300C2E5083B9B44ABEB96
:10331C00020B4FF0000AB0E605F108012046FFF75A
:10332C00CDF9BD68D9F804106B68CAE640F2545167
:10333C008B420BD8930C03F17D01C9007C33F3E66F
:10334C004FF47E737F204FF07E0CA1E54FF47E711D
:10335C007E23E9E67B6870E710B4034CD4F8E440B4
:10336C00A44610BC604700BF3804002082B049B1AD
:10337C005AB16BB113780B601278101E18BF012074
:10338C0002B0704701A9002AF3D1104602B0704771
:10339C006FF00100F4E700BF000000000000000027
:1033AC000000000001F0FF01102A2BDB10F0070FCA
:1033BC0008D010F8013B013A8B422DD010F0070FCA
:1033CC0042B3F6D1F0B441EA012141EA014122F0C5
:1033DC0007047FF000070023F0E80256083C85EA5A
:1033EC00010586EA010685FA47F5A3FA87F586FA00
:1033FC0047F6A5FA87F68EB9EED1F0BC01F0FF01C5
:10340C0002F0070232B110F8013B013A83EA0103E2
:10341C0013B1F8D10020704701387047002D06BF5A
:10342C0035460338073815F0010F07D1013015F474
:10343C00807F02BF013015F4C03F0130F0BC013871
:10344C00704700BF844641EA000313F003036DD1BB
:10345C00403A41D351F8043B40F8043B51F8043B4B
:10346C0040F8043B51F8043B40F8043B51F8043B52
:10347C0040F8043B51F8043B40F8043B51F8043B42
:10348C0040F8043B51F8043B40F8043B51F8043B32
:10349C0040F8043B51F8043B40F8043B51F8043B22
:1034AC0040F8043B51F8043B40F8043B51F8043B12
:1034BC0040F8043B51F8043B40F8043B51F8043B02
:1034CC0040F8043B51F8043B40F8043B51F8043BF2
:1034DC0040F8043B403ABDD2303211D351F8043B92
:1034EC0040F8043B51F8043B40F8043B51F8043BD2
:1034FC0040F8043B51F8043B40F8043B103AEDD241
:10350C000C3205D351F8043B40F8043B043AF9D291
:10351C00043208D0D2071CBF11F8013B00F8013B64
:10352C0001D30B8803806046704700BF082A13D371
:10353C008B078DD010F003038AD0C3F10403D21A89
:10354C00DB071CBF11F8013B00F8013B80D331F8BD
:10355C00023B20F8023B7BE7043AD9D3013A11F83D
:10356C00013B00F8013BF9D20B7803704B784370A8
:10357C008B7883706046704788420DD98B188342D4
:10358C000AD900EB020CBAB1624613F801CD02F86D
:10359C0001CD9942F9D170470F2A0ED8034602F19A
:1035AC00FF3C4AB10CF1010C013B8C4411F8012B8E
:1035BC0003F8012F6145F9D1704740EA01039B07DD
:1035CC0050D1A2F1100370B501F1200C23F00F05BE
:1035DC0001F1100E00F11004AC441B095EF8105CF4
:1035EC0044F8105C5EF80C5C44F80C5C5EF8085C0B
:1035FC0044F8085C5EF8045C44F8045C0EF1100EB0
:10360C00E64504F11004E9D1013312F00C0F01EB83
:10361C00031102F00F0400EB031327D0043C24F039
:10362C0003064FEA940C1E441C1F8E465EF8045B86
:10363C0044F8045FB442F9D10CF1010402F0030226
:10364C0003EB840301EB840102F1FF3C4AB10CF162
:10365C00010C013B8C4411F8012B03F8012F61453F
:10366C00F9D170BD02F1FF3C03469BE72246EBE724
:10367C00704700BF704700BF2DE9F84F174600296F
:10368C0000F0988007F10B0580460C46FFF7F0FF21
:10369C00162D5DD810252A46AF425ED854F8041C6E
:1036AC0021F003069642A4F1080962DABC4BD3F868
:1036BC0008C009EB0600844500F09780D0F804C0E0
:1036CC002CF0010303445B68DB0768D42CF0030C7B
:1036DC0006EB0C03934247DACB0710D454F8083CA2
:1036EC00A9EB030ADAF8043023F003018C44B44448
:1036FC00944580F211817318934280F2E880394628
:10370C004046FFF77FFB0746E0B154F8043C23F03A
:10371C0001034B44A0F10802934200F0D280321F07
:10372C00242A00F2F580132A00F2AC8003462246CC
:10373C00116819605168596092689A602146404638
:10374C00FEF7BCFF4046FFF795FF3846BDE8F88F03
:10375C0025F00705002D2A469EDA0C23C8F8003008
:10376C0000273846BDE8F88F1E46D0E90223D36007
:10377C009A60731B0F2B22D8D9F8043003F0010385
:10378C0033434E44C9F80430736843F0010373604B
:10379C0040462746FFF76EFF3846BDE8F88FC9074D
:1037AC00ADD454F8083CA9EB030ADAF8041021F064
:1037BC000301A0E7BDE8F84F1146FFF723BBD9F88A
:1037CC00041001F001012943C9F8041009EB0501AB
:1037DC004E4443F001034B60736843F0010308311E
:1037EC0073604046FEF76AFFD2E7DCF8040020F075
:1037FC00030B06EB0B0C05F1100084454DDAC907E1
:10380C003FF57DAF54F8081CA9EB010ADAF8041057
:10381C0021F003018B44B34458453FF76CAF574636
:10382C00DAF80C1057F8080F321F242AC160886090
:10383C0000F2DB80132A40F2D6802168CAF8081007
:10384C006168CAF80C101B2A00F2DF8008340AF1F8
:10385C0010022168116061685160A16891600AEBE7
:10386C000501ABEB050242F0010299604A60DAF8FF
:10387C00043003F001031D434046CAF80450FFF71F
:10388C00F9FE6EE723680360636843601B2A68D8FF
:10389C0004F1080200F108034AE709EB05029A60FB
:1038AC00ACEB050343F00103536054F8043C03F004
:1038BC0001031D43404644F8045CFFF7DBFE27463A
:1038CC004FE750F8043C23F003031E4451E75746DE
:1038DC00DAF80C1057F8080F321F242AC1608860E0
:1038EC004CD8132A48D92168CAF808106168CAF85C
:1038FC000C101B2A56D808340AF110021E462368F5
:10390C00136063685360A3689360D1463C4630E70C
:10391C002146FFF731FE11E7D0E902135746CB6081
:10392C00996057F8081FDAF80C30CB60321F242A44
:10393C0099602DD8132A29D92368CAF808306368EE
:10394C00CAF80C301B2A42D808340AF1100322683A
:10395C001A6062685A60A2689A606646D1463C4614
:10396C0007E7A3688360E368C360242A26D004F1C8
:10397C00100200F11003DBE63A46BFE72146384659
:10398C001E46D146FFF7F8FD3C46F2E63B46DEE725
:10399C00214638466646D146FFF7EEFD3C46E8E642
:1039AC00A4050020A168CAF81010E168CAF8141028
:1039BC00242A20D010340AF118029FE723690361EE
:1039CC006169416104F1180200F11803B0E6A368C3
:1039DC00CAF81030E368CAF81430242A21D0103405
:1039EC000AF11803B3E73A4633E721463846FFF7A6
:1039FC00C3FD164B33E72269CAF818206269CAF86E
:103A0C001C2018340AF1200278E7A168CAF81010BB
:103A1C00E168CAF81410242A0DD010340AF11802E7
:103A2C0017E72369CAF818306369CAF81C301834D0
:103A3C000AF120038BE72269CAF818206269CAF8D8
:103A4C001C2018340AF1200203E700BFA405002053
:103A5C0038B5074D0022044608462A6000F082FD66
:103A6C00431C00D038BD2B68002BFBD0236038BD25
:103A7C00040A002010B50C46B1F90E1000F0BAFB88
:103A8C00002803DB236D0344236510BDA38923F4B5
:103A9C008053A38110BD00BF002070472DE9F04179
:103AAC000C46B1F90C101F46CB05054616460BD437
:103ABC0021F48051A1813B46B4F90E1032462846C0
:103ACC00BDE8F04100F0C6BAB4F90E100223002292
:103ADC0000F07AFBB4F90C10EAE700BF10B50C4605
:103AEC00B1F90E1000F070FBA389421C0EBF23F439
:103AFC00805343F480532065A38110BDB1F90E109F
:103B0C0000F0BEBA00000000000000000000000041
:103B1C0000000000A2EB0300704700BF02780B7896
:103B2C00012A28BF9A42F5D16DE9044540EA010407
:103B3C00CDE902676FF0000C4FEA447212B380EAD1
:103B4C00010414F0070F6AD100F0070420F00700FD
:103B5C0004F0030521F007014FEAC505F0E8042342
:103B6C0014F0040FF1E804670CFA05F462EA04029D
:103B7C0066EA04060AD063EA0403624667EA0407AD
:103B8C00664603E0F0E80423F1E8046782FA4CF59A
:103B9C0082EA0604A4FA8CF46CBB83FA4CF583EA33
:103BAC000705A5FA8CF595B950E9022351E902678E
:103BBC0082FA4CF582EA0604A4FA8CF483FA4CF5EA
:103BCC0083EA0705A5FA8CF52543DBD09CB92DBA01
:103BDC00B5FA85F424F0070427FA04F1DDE902674D
:103BEC0023FA04F303F0FF0001F0FF01FDE80445A4
:103BFC00A0EB0100704724BAB4FA84F424F0070453
:103C0C0026FA04F1DDE9026722FA04F202F0FF0061
:103C1C0001F0FF01FDE80445A0EB0100704714F032
:103C2C00030F3CD110F0030428D150F8082B51F8A5
:103C3C00083B82FA4CF582EA0305A5FA8CF55DB9CE
:103C4C0050F8042C51F8043C82FA4CF582EA030536
:103C5C00A5FA8CF5002DE8D02DBAB5FA85F424F030
:103C6C00070423FA04F122FA04F202F0FF0001F037
:103C7C00FF01FDE80445A0EB010070474FEAC404C6
:103C8C0020F0030050F8082B21F0030151F8083BF9
:103C9C000CFA04F462EA040263EA0403C9E710F0C4
:103CAC0003041AD0A1EB040120F00300E40750F840
:103CBC00042B06D00FD28B785FFAA2F4E41A06D14B
:103CCC002BB1CB785FFAB2F4E41A00D11BB92046C1
:103CDC005DF8104B704701F1040150F8042BCC0730
:103CEC0021F0030151F8043B48D824D222F07F4440
:103CFC0082FA4CF594EA1325A5FA8CF50AD165B92C
:103D0C0051F8043B84EA0204B4EB036F0ED150F873
:103D1C00042BEBE74FEA132355E035F07F454DD1EB
:103D2C000878FDE80445C0F1000070474FEA1262C4
:103D3C0003F0FF0347E002EA1C4482FA4CF594EAD4
:103D4C001345A5FA8CF50AD165B951F8043B84EA00
:103D5C000204B4EB034F0CD150F8042BEBE74FEA01
:103D6C00134330E015EA1C4528D10B884FEA124268
:103D7C0029E04FEA124203EA1C4324E002F0FF045C
:103D8C0082FA4CF594EA1365A5FA8CF50AD165B95B
:103D9C0051F8043B84EA0204B4EB032F09D150F828
:103DAC00042BEBE74FEA13630DE015F0FF0F05D181
:103DBC000B684FEA122223F07F4304E04FF000001F
:103DCC00FDE80445704712BA1BBA82FA4CF482EA39
:103DDC000304A4FA8CF5B5FA85F402FA04F203FA9A
:103DEC0004F34FEA1260FDE80445A0EB1360704742
:103DFC000000000090F800F06DE9024520F007018A
:103E0C006FF0000C10F0070491F820F040F049809E
:103E1C004FF000046FF00700D1E9002391F840F057
:103E2C0000F1080082FA4CF2A4FA8CF283FA4CF3FB
:103E3C00A2FA8CF34BBBD1E9022382FA4CF200F1CB
:103E4C000800A4FA8CF283FA4CF3A2FA8CF3E3B9CF
:103E5C00D1E9042382FA4CF200F10800A4FA8CF2A6
:103E6C0083FA4CF3A2FA8CF37BB9D1E9062301F166
:103E7C00200182FA4CF200F10800A4FA8CF283FAC9
:103E8C004CF3A2FA8CF3002BC6D0002A04BF0430EA
:103E9C001A4612BAB2FA82F2FDE8024500EBD200E1
:103EAC007047D1E9002304F00305C4F100004FEA88
:103EBC00C50514F0040F91F840F00CFA05F562EA10
:103ECC0005021CBF63EA050362464FF00004A9E734
:103EDC00F8B50D461446064610B1836B002B43D043
:103EEC00B4F90C20A369A360170790B21BD5236902
:103EFC00CBB1EDB281042F4622D522686169D31A69
:103F0C00994229DD0133A1680139A160511C21605E
:103F1C00157062699A422AD0A389DB0701D50A2D54
:103F2C0025D03846F8BD21463046FEF717F820BBA1
:103F3C00B4F90C20236990B2EDB281042F46DCD485
:103F4C0042F40052A281626E616922F400526266F0
:103F5C002268D31A9942D5DC21463046FEF78EF9F9
:103F6C0058B922680123CEE7FEF7B2FAB8E721462A
:103F7C003046FEF783F90028D3D04FF0FF37D0E757
:103F8C0010B4044C03460A46206810BC1946FFF7CF
:103F9C009FBF00BF0800002070B5054684B01C46CA
:103FAC0039B10B4ED6F8E060B047431C09D004B0D1
:103FBC0070BD0A460649D1F8E06001A9B047431C20
:103FCC00F5D100228A2322602B6004B070BD00BFA3
:103FDC003804002070B5114B84B01D6814460B4694
:103FEC00014650B10E481A46D0F8E06023462846E8
:103FFC00B047431C0BD004B070BD094A2346D2F81D
:10400C00E06001A902462846B047431CF3D10022C8
:10401C008A2322602B6004B070BD00BF0800002012
:10402C003804002010B4034CD4F8E040A44610BC73
:10403C00604700BF3804002049B1FF2A02D80A703B
:10404C00012070478A2303604FF0FF307047084609
:10405C00704700BF38B50C46084D844611462046C3
:10406C001A4600232B606446FCF70EFA431C00D062
:10407C0038BD2B68002BFBD0236038BD040A002010
:10408C0038B5074D0022044608462A6000F04AFA6B
:10409C00431C00D038BD2B68002BFBD0236038BDEF
:1040AC00040A002070B50C460646FEF757F8E36A82
:1040BC00054633B1E169304698470028B8BF4FF048
:1040CC00FF35A3891B0619D4216B41B104F14003C0
:1040DC00994202D03046FEF7F1FA00232363616C5B
:1040EC0021B13046FEF7EAFA00236364FEF7F4F9D7
:1040FC000023A381FEF7F2F9284670BD21693046F2
:10410C00FEF7DCFAE0E700BFB1B138B505460C4666
:10411C0008B1836B4BB1B4F90C300BB9002038BD2E
:10412C0021462846BDE83840BCE7FEF7D1F9B4F982
:10413C000C30002BF2D0F3E700207047C0B138B53B
:10414C000C4B1D6804460DB1AB6B4BB1B4F90C3084
:10415C000BB9002038BD21462846BDE83840A1E700
:10416C002846FEF7B5F9B4F90C30002BF1D0F2E784
:10417C00002070470800002070B50C46084D03461F
:10418C000026204611461C462E6000F0D3F9431C35
:10419C0000D070BD2B68002BFBD0236070BD00BF1E
:1041AC00040A002038B5074D0022044608462A6050
:1041BC0000F0C8F9431C00D038BD2B68002BFBD095
:1041CC00236038BD040A002038B50C46084D8446DF
:1041DC00114620461A4600232B60644600F0BAF9BB
:1041EC00431C00D038BD2B68002BFBD0236038BD9E
:1041FC00040A002038B50C46084D8446114620466A
:10420C001A4600232B606446FCF75DF9431C00D072
:10421C0038BD2B68002BFBD0236038BD040A00206E
:10422C0053B94AB9002908BF00281CBF4FF0FF3111
:10423C004FF0FF3000F074B9ADF1080C6DE904CE0D
:10424C0000F006F8DDF804E0DDE9022304B0704765
:10425C002DE9F047089E0D4604468846002B4DD1AB
:10426C008A42944668D9B2FA82F252B101FA02F348
:10427C00C2F1200120FA01F10CFA02FC41EA030818
:10428C0094404FEA1C45210CB8FBF5FE1FFA8CF745
:10429C0005FB1E8341EA03430EFB07F199420BD940
:1042AC001CEB03030EF1FF3080F01E81994240F2AB
:1042BC001B81AEF1020E63445B1AA4B2B3FBF5F0A2
:1042CC0005FB103344EA034400FB07F7A7420AD965
:1042DC001CEB040400F1FF3380F00881A74240F28C
:1042EC00058164440238E41B40EA0E4000211EB1F3
:1042FC00D4400023C6E90043BDE8F0878B4208D9BF
:10430C00002E00F0EE800021C6E900050846BDE84D
:10431C00F087B3FA83F100294AD1AB4202D382422F
:10432C0000F2F980841A65EB030301209846002EF5
:10433C00E2D0C6E90048DFE702B9FFDEB2FA82F24A
:10434C00002A40F09180A1EB0C054FEA1C471FFAA4
:10435C008CFE0121B5FBF7F307FB1350250C45EA46
:10436C0000450EFB03F0A84208D91CEB050503F130
:10437C00FF3802D2A84200F2CB8043462D1AA4B2D9
:10438C00B5FBF7F007FB105544EA05440EFB00FEA5
:10439C00A64508D91CEB040400F1FF3502D2A64552
:1043AC0000F2BB802846A4EB0E0440EA03409EE7D3
:1043BC00C1F120078B4022FA07FC4CEA030C20FACF
:1043CC0007F405FA01F31C43FD404FEA1C4900FABF
:1043DC0001F3B5FBF9F8200C1FFA8CFE09FB1855FC
:1043EC0040EA054508FB0EF0A84202FA01F20BD98F
:1043FC001CEB050508F1FF3A80F08880A84240F2DA
:10440C008580A8F1020865442D1AA4B2B5FBF9F019
:10441C0009FB105544EA054500FB0EFEAE4508D9D4
:10442C001CEB050500F1FF346CD2AE456AD902389D
:10443C00654440EA0840A0FB0294A5EB0E05A5429A
:10444C00C846A64656D353D05EB1B3EB080265EB13
:10445C000E0505FA07F722FA01F3CD401F43C6E912
:10446C0000750021BDE8F087C2F1200320FA03F1AA
:10447C000CFA02FC25FA03F395400D434FEA1C4756
:10448C001FFA8CFEB3FBF7F107FB11302B0C43EA40
:10449C00004301FB0EF0984204FA02F408D91CEB1D
:1044AC00030301F1FF382FD298422DD9023963440E
:1044BC001B1AADB2B3FBF7F007FB103345EA03450B
:1044CC0000FB0EF3AB4208D91CEB050500F1FF38DD
:1044DC0016D2AB4214D902386544ED1A40EA0141B8
:1044EC0038E73146304607E78646E5E61846FAE6F1
:1044FC004B45A9D2B9EB020864EB0C0E0138A3E7CB
:10450C004046EAE7204694E74146D1E7D0467BE7B0
:10451C00023B654432E7084609E76444023842E747
:10452C00704700BF024B58221A604FF0FF307047A3
:10453C00040A0020024B58221A604FF0FF307047DB
:10454C00040A0020024B58221A600020704700BF5A
:10455C00040A0020024B58221A604FF0FF307047BB
:10456C00040A0020044A05491368002B08BF0B46B7
:10457C001844106018467047080A00200C0A0020E6
:10458C00FEE700BFF8B500BFF8BC08BC9E467047FC
:10459C005521000005040000F8B500BFF8BC08BCAC
:0C45AC009E467047DD0300000000000088
:1045B80000460000000000206D020000B44F00001B
:1045C800B409002000000000B44F0000B409002026
:1045D80000000000B44F0000B409002000000000F3
:1045E800B4090020160000000C0A0020000000009A
:0845F8000C0A00200000000085
:104600000090D00300000000100000200000000017
:1046100000000000FC02002064030020CC03002006
:10462000000000000000000000000000000000008A
:10463000000000000000000000000000000000007A
:10464000000000000000000000000000000000006A
:10465000000000000000000000000000000000005A
:10466000000000000000000000000000000000004A
:10467000000000000000000000000000000000003A
:10468000000000000000000000000000000000002A
:10469000000000000000000000000000000000001A
:1046A000000000000000000000000000000000000A
:1046B00000000000000000000100000000000000F9
:1046C0000E33CDAB34126DE6ECDE05000B000000BE
:1046D00000000000000000000000000000000000DA
:1046E00000000000000000000000000000000000CA
:1046F00000000000000000000000000000000000BA
:1047000000000000000000000000000000000000A9
:104A30000000000000000000430000000000000033
:104A40000000000000000000000000000000000066
:104A50000000000000000000430000000000000013
:104A60000000000000000000000000000000000046
:104A700000000000000000004300000000000000F3
:104A80000000000000000000000000000000000026
:104A900000000000000000004300000000000000D3
:104AA0000000000000000000000000000000000006
:104AB00000000000000000004300000000000000B3
:104AC00000000000000000000000000000000000E6
:104AD0000000000000000000430000000000000093
:104AE00000000000000000000000000000000000C6
:104AF0000000000000000000430000000000000073
:104B000000000000000000000000000000000000A5
:104B10000000000000000000454000007933000064
:104B200000000000900200008C0200004002000023
:104B3000400200004002000040020000400200006D
:104B4000400200004002000040020000400200005D
:104B5000FFFFFFFFFFFFFFFFFFFFFFFFFFFF000063
:104B600001004153434949000000000000000000DB
:104B70000000000000000000000000000000000035
:104B800000004153434949000000000000000000BC
:104B90000000000000000000000000000000000015
:104BA000000000000000000000000000A40500203C
:104BB000A4050020AC050020AC050020B4050020B1
:104BC000B4050020BC050020BC050020C405002061
:104BD000C4050020CC050020CC050020D405002011
:104BE000D4050020DC050020DC050020E4050020C1
:104BF000E4050020EC050020EC050020F405002071
:104C0000F4050020FC050020FC050020040600201F
:104C1000040600200C0600200C06002014060020CC
:104C2000140600201C0600201C060020240600207C
:104C3000240600202C0600202C060020340600202C
:104C4000340600203C0600203C06002044060020DC
:104C5000440600204C0600204C060020540600208C
:104C6000540600205C0600205C060020640600203C
:104C7000640600206C0600206C06002074060020EC
:104C8000740600207C0600207C060020840600209C
:104C9000840600208C0600208C060020940600204C
:104CA000940600209C0600209C060020A4060020FC
:104CB000A4060020AC060020AC060020B4060020AC
:104CC000B4060020BC060020BC060020C40600205C
:104CD000C4060020CC060020CC060020D40600200C
:104CE000D4060020DC060020DC060020E4060020BC
:104CF000E4060020EC060020EC060020F40600206C
:104D0000F4060020FC060020FC060020040700201A
:104D1000040700200C0700200C07002014070020C7
:104D2000140700201C0700201C0700202407002077
:104D3000240700202C0700202C0700203407002027
:104D4000340700203C0700203C07002044070020D7
:104D5000440700204C0700204C0700205407002087
:104D6000540700205C0700205C0700206407002037
:104D7000640700206C0700206C07002074070020E7
:104D8000740700207C0700207C0700208407002097
:104D9000840700208C0700208C0700209407002047
:104DA000940700209C0700209C070020A4070020F7
:104DB000A4070020AC070020AC070020B4070020A7
:104DC000B4070020BC070020BC070020C407002057
:104DD000C4070020CC070020CC070020D407002007
:104DE000D4070020DC070020DC070020E4070020B7
:104DF000E4070020EC070020EC070020F407002067
:104E0000F4070020FC070020FC0700200408002015
:104E1000040800200C0800200C08002014080020C2
:104E2000140800201C0800201C0800202408002072
:104E3000240800202C0800202C0800203408002022
:104E4000340800203C0800203C08002044080020D2
:104E5000440800204C0800204C0800205408002082
:104E6000540800205C0800205C0800206408002032
:104E7000640800206C0800206C08002074080020E2
:104E8000740800207C0800207C0800208408002092
:104E9000840800208C0800208C0800209408002042
:104EA000940800209C0800209C080020A4080020F2
:104EB000A4080020AC080020AC080020B4080020A2
:104EC000B4080020BC080020BC080020C408002052
:104ED000C4080020CC080020CC080020D408002002
:104EE000D4080020DC080020DC080020E4080020B2
:104EF000E4080020EC080020EC080020F408002062
:104F0000F4080020FC080020FC0800200409002010
:104F1000040900200C0900200C09002014090020BD
:104F2000140900201C0900201C090020240900206D
:104F3000240900202C0900202C090020340900201D
:104F4000340900203C0900203C09002044090020CD
:104F5000440900204C0900204C090020540900207D
:104F6000540900205C0900205C090020640900202D
:104F7000640900206C0900206C09002074090020DD
:104F8000740900207C0900207C090020840900208D
:104F9000840900208C0900208C090020940900203D
:104FA000940900209C0900209C090020FFFFFFFFBE
:044FB00000000200FB
:0400000300001019D0
:00000001FF
