:10000000000001204D140000BD140000BF140000CA
:10001000C1140000C3140000C5140000000000005B
:10002000000000000000000000000000C7140000F5
:10003000C914000000000000CB140000CD14000023
:10004000CF140000CF140000CF140000CF14000024
:10005000CF140000CF140000CF140000CF14000014
:10006000CF140000CF140000CF140000CF14000004
:10007000CF140000CF140000CF140000CF140000F4
:10008000CF140000CF140000CF140000CF140000E4
:10009000CF140000CF140000CF140000CF140000D4
:1000A000CF140000CF140000CF140000CF140000C4
:1000B000CF140000CF14000000000000000000007A
:1000C000CF140000CF140000CF140000CF140000A4
:1000D000CF140000CF140000CF1400000000000077
:1000E0000000000000000000000000000000000010
:1000F0000000000000000000000000000000000000
:1001000000000000000000000000000000000000EF
:1001100000000000000000000000000000000000DF
:1001200000000000000000000000000000000000CF
:1001300000000000000000000000000000000000BF
:1001400000000000000000000000000000000000AF
:10015000000000000000000000000000000000009F
:10016000000000000000000000000000000000008F
:10017000000000000000000000000000000000007F
:10018000000000000000000000000000000000006F
:10019000000000000000000000000000000000005F
:1001A000000000000000000000000000000000004F
:1001B000000000000000000000000000000000003F
:1001C000000000000000000000000000000000002F
:1001D000000000000000000000000000000000001F
:1001E000000000000000000000000000000000000F
:1001F00000000000000000000000000000000000FF
:100200005468652061766572616765206772616414
:100210006520696E2054544B256420696E20256446
:10022000207761733A2025630A0D0000456E7465DE
:1002300072206F6E6520696E74656765723A0A0D8B
:100240000000000025640000456E74657220616E38
:100250006F746865723A0A0D000000002564202A58
:10026000202564203D2025640A0D00003031323302
:1002700034353637383941424344454600000000A2
:10028000303132333435363738396162636465660C
:1002900000000000286E756C6C29000065256C64F8
:1002A000000000002E0000006E660000696E697498
:1002B00079000000616E000043000000504F534978
:1002C0005800000042616C6C6F6320737563636556
:1002D00065646564000000002E2E2F2E2E2F2E2E1A
:1002E0002F2E2E2F2E2E2F2E2E2F6E65776C6962BD
:1002F0002F6C6962632F7374646C69622F67647416
:100300006F612D6765746865782E63002C206675B3
:100310006E6374696F6E3A2000000000617373654C
:100320007274696F6E2022257322206661696C6584
:10033000643A2066696C6520222573222C206C6942
:100340006E65202564257325730A00002E2E2F2E3E
:100350002E2F2E2E2F2E2E2F2E2E2F2E2E2F6E6541
:10036000776C69622F6C6962632F7374646C696265
:100370002F6D707265632E6300000000494E4600C9
:10038000696E66004E414E006E616E0030000000E6
:10039000496E66696E697479000000004E614E0016
:1003A0002E2E2F2E2E2F2E2E2F2E2E2F2E2E2F2E68
:1003B0002E2F6E65776C69622F6C6962632F737480
:1003C000646C69622F64746F612E630020202020AA
:1003D00020202020202020202020202030303030DD
:1003E0003030303030303030303030300A000100C2
:1003F00002000300040005000600070008000900D1
:100400000A000B000C000D000E000F001000000091
:1004100035000000CEFBFFFFCB0300000100000011
:100420000000000034000000CEFBFFFFCB03000003
:100430000100000000000000BC89D897B2D29C3CAB
:1004400033A7A8D523F649393DA7F444FD0FA532BB
:100450009D978CCF08BA5B25436FAC642806681162
:10046000000000000000000000000000000000008C
:10047000000000000000000000000000000000007C
:10048000000000000000000000000000000000006C
:10049000101112131415161718190000000000008F
:1004A000001A1B1C1D1E1F000000000000000000A1
:1004B000000000000000000000000000000000003C
:1004C000001A1B1C1D1E1F00000000000000000081
:1004D000000000000000000000000000000000001C
:1004E000000000000000000000000000000000000C
:1004F00000000000000000000000000000000000FC
:1005000000000000000000000000000000000000EB
:1005100000000000000000000000000000000000DB
:1005200000000000000000000000000000000000CB
:1005300000000000000000000000000000000000BB
:1005400000000000000000000000000000000000AB
:10055000000000000000000000000000000000009B
:100560000020202020202020202028282828282083
:10057000202020202020202020202020202020207B
:1005800020881010101010101010101010101010E3
:1005900010040404040404040404041010101010D3
:1005A000101041414141414101010101010101019D
:1005B00001010101010101010101010110101010EF
:1005C000101042424242424202020202020202026F
:1005D00002020202020202020202020210101010C3
:1005E00020000000000000000000000000000000EB
:1005F00000000000000000000000000000000000FB
:1006000000000000000000000000000000000000EA
:1006100000000000000000000000000000000000DA
:1006200000000000000000000000000000000000CA
:1006300000000000000000000000000000000000BA
:1006400000000000000000000000000000000000AA
:10065000000000000000000000000000000000009A
:10066000000000000000000005000000190000006C
:100670007D00000000000000000000000000F03FCE
:10068000000000000000244000000000000059406D
:100690000000000000408F40000000000088C340C0
:1006A00000000000006AF8400000000080842E4135
:1006B00000000000D01263410000000084D7974181
:1006C0000000000065CDCD41000000205FA0024287
:1006D000000000E876483742000000A2941A6D42FC
:1006E000000040E59C30A2420000901EC4BCD642EF
:1006F00000003426F56B0C430080E03779C341439A
:1007000000A0D8855734764300C84E676DC1AB430F
:10071000003D9160E458E143408CB5781DAF15442D
:1007200050EFE2D6E41A4B4492D54D06CFF0804408
:10073000F64AE1C7022DB544B49DD9794378EA441D
:10074000BC89D897B2D29C3C33A7A8D523F64939A7
:100750003DA7F444FD0FA5329D978CCF08BA5B25C9
:10076000436FAC642806C80A0080E03779C3414370
:10077000176E05B5B5B89346F5F93FE9034F384D07
:10078000321D30F94877825A3CBF737FDD4F1575B3
:100790002020202020202020202020202020202059
:1007A0003030303030303030303030303030303049
:0807B0009000000001000000B0
:1007B8000348044B834202D0034B03B118477047E8
:1007C800B8060020B8060020000000000548064BC7
:1007D8001B1AD90F01EBA301491002D0034B03B137
:1007E80018477047B8060020B8060020000000002F
:1007F80010B5064C237843B9FFF7DAFF044B13B161
:100808000448AFF300800123237010BDB806002010
:1008180000000000BCBA000008B5044B1BB1044935
:100828000448AFF30080BDE80840CFE700000000AF
:10083800BC060020BCBA0000A3F5803A704700BF90
:10084800154B002B08BF114B9D46FFF7F5FF002104
:100858008B460F461148124A121A00F035FE0C4B0F
:10086800002B00D098470B4B002B00D09847002056
:10087800002104000D000B4801F074FF01F002FE96
:100888002000290000F074F801F05EFF0000080065
:10089800000000000000000000000120B806002051
:1008A800E0090020253A000080B586B000AFF86066
:1008B800B9607A60BB687B6100233B610AE07B69B1
:1008C8001B78184600F042F97B6901337B613B696C
:1008D80001333B613B697A689A42F0D87B681846D5
:1008E8001837BD4680BD80B586B000AFF860B960E6
:1008F8007A60BB687B6100F049F90346FB74FB7CB6
:10090800002BF8D07B69FA7C1A7001231846183737
:10091800BD4680BD80B400AF4FF0A0430C22C3F8A1
:1009280034274FF0A0430C22C3F838274FF0A043D8
:100938000C22C3F83C274FF0A0430C22C3F84027F1
:100948004FF0A0430122C3F844274FF0A0430122EF
:10095800C3F848274FF0A0430122C3F84C274FF0B3
:10096800A0430122C3F8502700BFBD4680BC704792
:1009780080B584B000AFFFF7CDFF0023FB6000F027
:10098800B3F80023BB604FF0A043D3F810355B0BDE
:1009980003F00103002B03D1412000F0D7F841E018
:1009A8004FF0A043D3F810359B0B03F00103002B45
:1009B80003D1422000F0CAF834E04FF0A043D3F846
:1009C8001035DB0B03F00103002B08D1422340F262
:1009D800E67241F28B013E4800F0C8FD22E04FF07C
:1009E800A043D3F810351B0C03F00103002B19D1D9
:1009F800384800F0BBFD3B1D1946374801F080FE22
:100A0800364800F0B3FD3B461946334801F078FEFE
:100A1800796838687B683A6802FB03F30246304815
:100A280000F0A4FD00F0B2F80346002B20D0BB680C
:100A3800002B1DD14FF0A0434FF40032C3F80C2512
:100A48004FF0A0434FF48022C3F80C254FF0A04389
:100A58004FF40022C3F80C254FF0A0434FF4801246
:100A6800C3F80C250123BB606B2000F06FF824E06D
:100A780000F08CF80346002B1FD0BB68012B1CD15B
:100A88004FF0A0434FF40032C3F808254FF0A043BD
:100A98004FF48022C3F808254FF0A0434FF40022FA
:100AA800C3F808254FF0A0434FF48012C3F8082577
:100AB8000023BB60522000F049F80A4BFB6000BFDE
:100AC800FB68013BFB60FB68002BF9D15BE700BFCB
:100AD800000200002C02000044020000480200004E
:100AE8005C02000040420F0080B400AF4FF0A0430A
:100AF8000122C3F818274FF0A0430022C3F820278B
:100B0800104B0622C3F80C250E4B0822C3F81425F7
:100B18000C4B0D4AC3F824250A4B4FF0FF32C3F89B
:100B28000825084B4FF0FF32C3F81025054B042267
:100B3800C3F80025034B01221A6000BFBD4680BCE4
:100B4800704700BF002000400050270080B483B0E9
:100B580000AF0346FB710C4B01229A600A4AFB79ED
:100B6800C2F81C3500BF084BD3F81C31002BFAD053
:100B7800054B0122DA60044B0022C3F81C2100BF98
:100B88000C37BD4680BC70470020004080B483B05D
:100B980000AF0C4B01221A600023FB71094BD3F8FC
:100BA8000831002B03D0074BD3F81835FB71054BE0
:100BB8000022C3F80821FB7918460C37BD4680BCD3
:100BC800704700BF0020004080B483B000AF1E4BC8
:100BD8001B68B3F1FF3F0AD11C4B1B68DBB27B607B
:100BE8001B4B1B681B0903F00F033B6005E0164B0A
:100BF8001B687B60174B1B683B607B68062B1DD10D
:100C08003B68033B042B17D801A252F823F000BF1E
:100C18002D0C0000310C0000350C0000390C0000D0
:100C28003D0C000001230AE0012308E0012306E04F
:100C3800012304E0012302E0012300E00023184619
:100C48000C37BD4680BC704730010010E00F00F043
:100C5800E80F00F03401001080B483B000AF184BE7
:100C68001B68DBB27B60174B1B681B0903F00F0383
:100C78003B607B68062B1DD13B68033B042B17D8D0
:100C880001A252F823F000BFA50C0000A90C000037
:100C9800AD0C0000B10C0000B50C000001230AE007
:100CA800002308E0002306E0002304E0002302E01C
:100CB800002300E0002318460C37BD4680BC70476F
:100CC800E00F00F0E80F00F080B483B000AF1E4BD7
:100CD8001B68B3F1FF3F0AD11C4B1B68DBB27B607A
:100CE8001B4B1B681B0903F00F033B6005E0164B09
:100CF8001B687B60174B1B683B607B68062B1DD10C
:100D08003B68033B042B17D801A252F823F000BF1D
:100D18002D0D0000310D0000350D0000390D0000CB
:100D28003D0D000001230AE0012308E0012306E04D
:100D3800012304E0012302E0012300E00023184618
:100D48000C37BD4680BC704730010010E00F00F042
:100D5800E80F00F03401001080B483B000AF184BE6
:100D68001B68DBB27B60174B1B681B0903F00F0382
:100D78003B607B68062B1DD13B68033B042B17D8CF
:100D880001A252F823F000BFA50D0000A90D000034
:100D9800AD0D0000B10D0000B50D000001230AE003
:100DA800002308E0002306E0002304E0002302E01B
:100DB800002300E0002318460C37BD4680BC70476E
:100DC800E00F00F0E80F00F080B483B000AF1E4BD6
:100DD8001B68B3F1FF3F0AD11C4B1B68DBB27B6079
:100DE8001B4B1B681B0903F00F033B6005E0164B08
:100DF8001B687B60174B1B683B607B68062B1DD10B
:100E08003B68033B042B17D801A252F823F000BF1C
:100E18002D0E0000310E0000350E0000390E0000C6
:100E28003D0E000001230AE0012308E0012306E04B
:100E3800012304E0012302E0012300E00023184617
:100E48000C37BD4680BC704730010010E00F00F041
:100E5800E80F00F03401001080B483B000AF184BE5
:100E68001B68DBB27B60174B1B681B0903F00F0381
:100E78003B607B68062B1DD13B68033B042B17D8CE
:100E880001A252F823F000BFA50E0000A90E000031
:100E9800AD0E0000B10E0000B50E000001230AE0FF
:100EA800002308E0002306E0002304E0002302E01A
:100EB800002300E0002318460C37BD4680BC70476D
:100EC800E00F00F0E80F00F080B483B000AF184BDB
:100ED8001B68DBB27B60174B1B681B0903F00F0311
:100EE8003B607B68062B1DD13B68033B042B17D85E
:100EF80001A252F823F000BF150F0000190F0000DF
:100F08001D0F0000210F0000250F000001230AE03B
:100F1800002308E0002306E0002304E0002302E0A9
:100F2800002300E0002318460C37BD4680BC7047FC
:100F3800E00F00F0E80F00F080B483B000AF1E4B64
:100F48001B68B3F1FF3F0AD11C4B1B68DBB27B6007
:100F58001B4B1B681B0903F00F033B6005E0164B96
:100F68001B687B60174B1B683B607B68062B1DD199
:100F78003B68033B042B17D801A252F823F000BFAB
:100F88009D0F0000A10F0000A50F0000A90F000091
:100F9800AD0F000000230AE0002308E0012306E06B
:100FA800012304E0012302E0012300E000231846A6
:100FB8000C37BD4680BC704730010010E00F00F0D0
:100FC800E80F00F03401001080B483B000AF1E4B6E
:100FD8001B68B3F1FF3F0AD11C4B1B68DBB27B6077
:100FE8001B4B1B681B0903F00F033B6005E0164B06
:100FF8001B687B60174B1B683B607B68062B1DD109
:101008003B68033B042B17D801A252F823F000BF1A
:101018002D100000311000003510000039100000BC
:101028003D10000001230AE0012308E0012306E047
:10103800012304E0012302E0012300E00023184615
:101048000C37BD4680BC704730010010E00F00F03F
:10105800E80F00F03401001080B483B000AF1E4BDD
:101068001B68B3F1FF3F0AD11C4B1B68DBB27B60E6
:101078001B4B1B681B0903F00F033B6005E0164B75
:101088001B687B60174B1B683B607B68062B1DD178
:101098003B68033B042B17D801A252F823F000BF8A
:1010A800BD100000C1100000C5100000C9100000EC
:1010B800CD10000001230AE0012308E0012306E027
:1010C800012304E0012302E0012300E00023184685
:1010D8000C37BD4680BC704730010010E00F00F0AF
:1010E800E80F00F03401001080B483B000AF164B55
:1010F8001B687B60154B1B683B607B68062B1DD10A
:101108003B68033B042B17D801A252F823F000BF19
:101118002D110000311100003511000039110000B7
:101128003D11000000230AE0002308E0002306E048
:10113800012304E0012302E0012300E00023184614
:101148000C37BD4680BC70473001001034010010D8
:1011580080B483B000AF164B1B687B60154B1B68CF
:101168003B607B68062B1DD13B68033B042B17D8DB
:1011780001A252F823F000BF951100009911000058
:101188009D110000A1110000A511000000230AE034
:10119800002308E0002306E0002304E0012302E026
:1011A800012300E0002318460C37BD4680BC704779
:1011B800300100103401001080B500AFFFF7C8FF00
:1011C8000346002B07D04FF010234FF08042D3F88E
:1011D8000832C2F8583500BF80BD000080B400AFA7
:1011E800034B044A1A6000BFBD4680BC704700BF6D
:1011F800000000200090D00380B500AFFFF7E4FCAA
:101208000346002B06D07F4B1B681B0A7E4A03F05F
:101218001F031360FFF720FD0346002B02D07B4B12
:101228007B4A1A60FFF750FD0346002B06D0794B26
:101238001B685B0B784A03F007031360FFF78CFD0C
:101248000346002B05D0754BDB68744A23F0807386
:10125800D360FFF7B9FD0346002B0ED04FF0804353
:101268000022C3F80C214FF080430022C3F810215C
:101278004FF080430022C3F83825FFF7EDFD034601
:10128800002B02D0664B03221A60FFF71DFE0346AF
:10129800002B0BD0634B05221A60634B01221A60A6
:1012A800624B00221A60624B3F221A60FFF744FE2D
:1012B8000346002B76D04FF080535E4AD3F80434AF
:1012C800C2F820354FF080535A4AD3F80834C2F890
:1012D80024354FF08053574AD3F80C34C2F82835D8
:1012E8004FF08053534AD3F81034C2F82C354FF0DE
:1012F8008053504AD3F81434C2F830354FF0805335
:101308004C4AD3F81834C2F834354FF08053494A60
:10131800D3F81C34C2F840354FF08053454AD3F80F
:101328002034C2F844354FF08053424AD3F824346D
:10133800C2F848354FF080533E4AD3F82834C2F8F3
:101348004C354FF080533B4AD3F82C34C2F8503513
:101358004FF08053374AD3F83034C2F854354FF041
:101368008053344AD3F83434C2F860354FF0805390
:10137800304AD3F83834C2F864354FF080532D4AD8
:10138800D3F83C34C2F868354FF08053294AD3F873
:101398004034C2F86C354FF08053264AD3F84434B1
:1013A800C2F87035FFF710FE0346002B05D0224B1C
:1013B8001B68224A03F04F031360FFF74DFE0346F4
:1013C800002B0DD04FF08043D3F8003403F0010315
:1013D800002B05D04FF080436FF00102C3F80024C2
:1013E800FFF782FE0346002B05D0154B1B68144AF5
:1013F80043F480631360FFF7DFFEFFF7EFFE00BFE3
:1014080080BD00BF240300104035014074C0074070
:101418000DF0ADBA440200103C050040F0ED00E0CC
:10142800A00500401056004088560040185600405D
:101438001456004000C0004058020010E40E00405E
:101448003C1700400F49104A104B00F010F81049A3
:10145800104A114B00F00BF81049114A114B00F0DB
:1014680006F81149114A124B00F001F806E0521A29
:1014780003DD043A98588850FBDC7047FFF7BCFE40
:10148800FFF7DEF900000020B8060020B8BB000016
:10149800B8060020B806002070C20000B806002078
:1014A800B806002070C20000B8060020B806002068
:1014B80070C20000FEE7FEE7FEE7FEE7FEE7FEE794
:1014C800FEE7FEE7FEE7FEE7830730B547D0541E88
:1014D800002A3ED0CAB2034601E0013C39D303F8E2
:1014E800012B9D07F9D1032C2CD9CDB205EB05258D
:1014F8000F2C05EB054535D9A4F1100222F00F0C8D
:1015080003F1100EE6444FEA121C1A46C2E90055D0
:10151800C2E9025510327245F8D10CF1010214F0FB
:101528000C0F03EB021204F00F0C13D0ACF1040300
:1015380023F003030433134442F8045B9342FBD1C2
:101548000CF003042CB1C9B21C4403F8011BA342DC
:10155800FBD130BD64461346002CF4D1F9E70346AD
:101568001446C0E71A46A446E0E700BF0FB400B52A
:10157800074983B004AB086853F8042B81680193CA
:1015880000F018F803B05DF804EB04B0704700BF32
:10159800080000200EB400B582B003AB816853F890
:1015A800042B019300F006F802B05DF804EB03B0D9
:1015B800704700BF2DE9F04FADB0CDE907301C46AC
:1015C8000291934618B1436B002B00F003850299F2
:1015D800B1F90C204B6E950405D442F4005223F463
:1015E80000538A814B66980400F12485029BB3F965
:1015F8000C20110740F1D3801B69002B00F0CF802D
:1016080002F01A020A2A00F0D9800023CDE910332B
:101618000DF17009CDF83C900993CA4605939BF8E3
:101628000030002B00F0F4805C4604E014F8013F21
:10163800002B00F0D280252BF8D1B4EB0B0540F03D
:10164800CF802378002B00F0E3804FF000038DF863
:1016580037304FF0FF320023CDE90323617804F1DE
:10166800010B98460BF1010BA1F12003582B00F256
:10167800DC80DFE813F0B201DA00DA00AD01DA004D
:10168800DA00DA00DA00DA00DA007601A701DA0017
:1016980081018601DA00A201590059005900590058
:1016A80059005900590059005900DA00DA00DA00E7
:1016B800DA00DA00DA00DA00DA00DA00DA006800C4
:1016C800DA00DA00DA00DA00DA00DA00DA00DA0042
:1016D800DA00DA001902DA00DA00DA00DA00DA00F1
:1016E800EA01DA00DA001D04DA00DA00DA00DA00CA
:1016F800DA00DA00DA00DA00DA00DA00DD016A007E
:10170800DA00DA00DA00D8016A00DA00DA00CB0180
:10171800DA00BD011B047F027A02DA005902DA00FE
:101728001904DA00DA004204A1F1300300221BF8A0
:10173800011B02EB820203EB4202A1F13003092BE9
:10174800F5D9049290E748F0100818F0200F00F03F
:10175800D780079B073323F007031A46596852F8C6
:10176800083B07920A460029C0F2DE8003999DF8DB
:1017780037500029C0F2E38053EA020128F08008BC
:1017880040F0DD80039B002B40F0598401934C46C8
:10179800002D00F0BE81019A01320192B9E1029D4B
:1017A8000898294600F0A6FC002840F04384B5F9C3
:1017B8000C2002F01A020A2A7FF427AF029BB3F921
:1017C8000E30002BFFF621AF0299089823465A469F
:1017D8002DB0BDE8F04F00F057BCB4EB0B0517D0A7
:1017E800119B2B441193109B0133072BCAE900B5B9
:1017F800109305DC0AF1080A059B2B44059320E7A2
:10180800029908980FAA02F035FB28B9CA46F3E7EF
:10181800119B002B40F00084029B9B895B0600F122
:10182800098405982DB0BDE8F08F0029F0D0002379
:101838008DF8373001238DF84810019312AC00223F
:101848000392069218F08407DDE9102105D1049867
:10185800019D451B002D00F34F829DF8370080B194
:1018680001320DF137000131CAF80000072A4FF0A4
:101878000100CDE91021CAF8040000F377820AF1CB
:10188800080A069878B101320EA80231CAF8000099
:10189800072A4FF00200CDE91021CAF8040000F32E
:1018A80073820AF1080A802F00F09B810398C51AF9
:1018B800002D00F3D58101321944072ACDE9102102
:1018C800CAF80040CAF8043000F302820AF1080A94
:1018D80018F0040F05D0049B019A9C1A002C00F301
:1018E8006182DDE9042301988242ACBF9B181B1872
:1018F8000593002940F0F78100231093CA468EE62D
:10190800079A18F0100F52F8043B079207D118F005
:10191800400F04D043F3C03211461BB223E7DA1755
:1019280011460029BFF622AF03995B4262EB4202DF
:101938002D2500298DF8375001DB28F080080A2B67
:1019480072F1000180F0F3823033DBB28DF86F3032
:10195800039B012BB8BF012301930DF16F040123F1
:1019680016E7079B53F8042B0492002A80F288821A
:10197800049A0793524204929BF8001048F0040816
:1019880070E6584610F8011B2A2900F05A83A1F185
:101998003003092B98BF002200F2478310F8011B7F
:1019A80002EB820203EB4202A1F13003092BF5D9C5
:1019B80042EAE2730393834656E69BF8001048F028
:1019C80080084FE62B239BF800108DF8373049E646
:1019D8009BF8001048F0010844E69DF837309BF862
:1019E8000010002B7FF43EAE20238DF8373039E607
:1019F80018F0200F00F04D82079B059A1B681A60AB
:101A0800D2175A60079B0433079308E69BF8001027
:101A18006C2903BF9BF8011048F020080BF1010B5B
:101A280048F010081EE69BF8001048F0400819E638
:101A3800079B00228DF8372053F8042B07930123C6
:101A48008DF84820019312ACF9E648F0100111F026
:101A5800200200F0DE81079B073323F007031846B6
:101A68005A6850F8083B079003980025A8428DF85B
:101A78003750C0F2A782012553EA020021F08008FE
:101A880040F094800398002840F09E82002D40F09A
:101A9800F38111F0010300F0F88130228DF86F20F6
:101AA80001930DF16F0434E048F0100111F02002A9
:101AB80000F0BE81079B073323F0070318465A68D6
:101AC80050F8083B079003980025A8428DF8375036
:101AD800D2DA88464C4603F00701DB0843EA427332
:101AE800D208303153EA0205204604F8011DF2D12C
:101AF80018F0010F6DD030296BD0039A02383023CB
:101B080004F8013CA9EB00039A42B8BF1A46044600
:101B1800019218F0020206923FF494AE019A023242
:101B28000192022206928DE6079D039B55F8044B0D
:101B380000218DF83710002C00F05E82002BC0F2D7
:101B4800DF811A46204603F097FB002800F06B82DD
:101B5800031B9DF8372023EAE3710191002A00F066
:101B6800528200220795039215E69BF8001048F070
:101B7800200877E5079A52F8043B079247F63002A7
:101B8800ADF83820B24A099248F002080022002134
:101B98008DF83710039900290DDB414653EA0200FE
:101BA8004FF0020521F080083FF46CAF012D00F0E2
:101BB8005482022D8ED109984C4603F00F011B095F
:101BC800415C04F8011D43EA0273120953EA020159
:101BD800F3D1039AA9EB04039A42B8BF1A460192BB
:101BE80097E70498019D451B002D7FF75FAE102DE8
:101BF800984E23DD06945046089C10279A4604E028
:101C0800103D102D00F1080015DD01321031072AB2
:101C1800C0E90067CDE91021F2DD02990FAA20463C
:101C280002F028F900287FF4F7AD103D102DDDE90A
:101C380010214846E9DC069C534682460132294475
:101C4800072ACDE91021CAF80060CAF8045000F349
:101C5800C5810398C51A002D0AF1080A7FF72BAE33
:101C6800102D7C4E26DD03945046089CB246102762
:101C78001E4604E0103D102D00F1080016DD01326B
:101C8800744B1031072AC0E90037CDE91021F1DD86
:101C980002990FAA204602F0EDF800287FF4BCADA7
:101CA800103D102DDDE910214846E8DC039C334641
:101CB8005646824601322944072ACDE91021CAF83E
:101CC8000060CAF8045000F3C9800AF1080AF2E576
:101CD800029908980FAA02F0CDF800287FF49CAD6D
:101CE8001199CA46F4E5029908980FAA02F0C2F8B9
:101CF80000283FF401AE8FE5102D574E28DDCDE9C1
:101D08000A7450463746089C029E9A4604E0103DE5
:101D1800102D00F1080016DD013210311023072ABA
:101D2800CDE9102107604360F1DD0FAA3146204656
:101D380002F0A0F800287FF46FAD103D102DDDE90A
:101D480010214846E8DC3E460B9C0A9F53468246D3
:101D580001322944072ACDE91021CAF80060CAF8DF
:101D6800045000F321810AF1080A76E502990898DF
:101D78000A930FAA02F07EF800287FF44DADDDE942
:101D880010210A9BCA467CE50299089806930FAA77
:101D980002F070F800287FF43FADDDE91021069BC2
:101DA800CA4680E5102C109B2B4E1FDD089FDDF8DE
:101DB8000880102504E0103C102C0AF1080A15DDF3
:101DC80001331031072BCAE90065CDE91031F2DD86
:101DD8000FAA4146384602F04DF800287FF41CADA2
:101DE800103C102CDDE91031CA46E9DC01332144EE
:101DF800072BCAE90064CDE910317FF772AD02996B
:101E080008980FAA02F036F800287FF405AD11995A
:101E180067E5079850F8043B079011F010007FF42D
:101E280023AE11F040023FF41FAE9BB202461BE600
:101E3800079850F8043B079011F010007FF443AE68
:101E480011F040023FF43FAE9BB202463BE600BFB2
:101E580080020000DC030000CC030000029908980F
:101E680003930FAA02F006F800287FF4D5ACDDE949
:101E78001021039BCA461EE5039B01934C4648E686
:101E88009BF800100793FFF7EDBB039A01924C46AD
:101E98003FE618F0100F38D118F0400F35D0079BE7
:101EA800059A1B681A80ADE54146D0E54146FDE537
:101EB8006B4B099318F020022CD0079B073323F0B3
:101EC800070318465A6850F8083B079018F0010FA6
:101ED8003FF45DAE53EA02003FF459AE8DF8391075
:101EE80030218DF8381000218DF83710039900291A
:101EF80080F28D8048F002085DE65A4B0993D9E7D5
:101F0800204601F099FE034623E6079B059A1B68C5
:101F18001A6077E5079850F8043B079018F010000E
:101F2800D4D118F040021CBF9BB20246CEE74E4EF9
:101F3800CDF804A04C464FF0050E991841F1000168
:101F4800A6FB010727F0030000EB9700091A581AAF
:101F58009A46944662F100034FF0CC3202FB00F23D
:101F680006FB0322A0FB063003F001070244A7FB8F
:101F78000E074018BAF10A0F4FEA530300F1300078
:101F88007CF1000C43EAC27304F8010D4FEA5202D7
:101F9800D3D2039ADDF804A0A9EB04039A42B8BF90
:101FA8001A460192FFF7F4BB029908980A930FAA00
:101FB80001F060FF00287FF42FACDDE910210A9BB7
:101FC800CA464AE48846BAE4012D7FF4F2AD0025FA
:101FD8003023BBE400F06CFBFFF7F9BA02990898CC
:101FE80006930FAA01F046FF00287FF415ACDDE93F
:101FF8001021069BCA4659E4062B28BF06231B4C12
:10200800079501931BE4CDE9062503921AE428F00D
:10201800800141F00208CEE5029908980FAA01F064
:1020280029FFFFF7F9BB039B93E50023834603933E
:10203800FFF71ABB4FF0FF330593FFF7F2BB3023CE
:1020480084E4079B9BF8011053F8042B079342EA9A
:10205800E27283460392FFF705BB00256FE400BFD9
:102068006C02000080020000CDCCCCCC94020000B1
:1020780010B4044C84461346206810BC0A466146D6
:10208800FFF798BA0800002070B50C468989ADF5AD
:102098008D6D21F00201ADF80C101AA90091049180
:1020A8004FF4806102910591616E1991E189ADF853
:1020B8000E10E1690791616A09910021069169464C
:1020C8000646FFF777FA051E07DB6946304603F038
:1020D80011FF002818BF4FF0FF35BDF80C305B0624
:1020E80003D5A38943F04003A38128460DF58D6DE0
:1020F80070BD00BF38B52F4B1B6805460C4613B1A1
:102108005A6B002A4BD0B4F90C3018071CD5226939
:1021180022B313F0010107D0616900204942A06091
:10212800A1613AB1002038BD980758BF6169A16024
:10213800002AF7D1190658BF1046F4D543F04003DA
:10214800A3814FF0FF3038BDD9062CD55A0712D4D9
:10215800226943F00803A381002ADAD103F420712D
:10216800B1F5007FD5D02146284602F0A1FFB4F989
:102178000C302269CDE7216B51B104F14002914244
:1021880004D0284600F074F8B4F90C300022226319
:1021980022690021C4E9002123F02403D9E7184665
:1021A80000F086FAAFE7092243F040032A60A381D2
:1021B800C7E700BF080000202DE9F84306460820BD
:1021C800894600F051F9DFF89C800546304600F05A
:1021D80081F9D8F808305F6827F00307A7F11104E0
:1021E800A4EB09042C44B4FBF5F4013C05FB04F40E
:1021F800A54208DC0021304601F058FBD8F8083029
:102208003B44984205D0304600F066F90020BDE80E
:10221800F8836142304601F049FB01300FD0124A81
:10222800D8F808303F1B47F001075F601368304655
:102238001B1B136000F050F90120BDE8F883002152
:10224800304601F033FBD8F80820831A0F2BDADD6B
:1022580043F001035360054B03491B68C01A08602B
:10226800D1E700BFA802002014080020B006002013
:1022780000297CD0F8B50C46064600F02BF954F836
:10228800043C764FA4F1080523F001016818D7F83B
:1022980008C04268844522F0030200F08380DB070F
:1022A800426000EB020C33D454F8084CDCF80430DC
:1022B8002D1B2144AC6807F1080C644503F00103A9
:1022C80064D0D5F80CE0C4F80CE0CEF80840002B38
:1022D80000F0818041F001036B600160B1F5007F7F
:1022E80022D27868CB080122490901338A40024387
:1022F80057F833107A6007EBC302083AC5E90212AF
:1023080047F83350CD603046BDE8F84000F0E4B8F7
:10231800DCF80430DB072BD541F00103B1F5007F71
:1023280044F8043C0160DCD3B1F5206F4FEA512337
:1023380053D28B0903F1390003F13802C300F818AE
:10234800FB580838984203D161E09B68984204D052
:102358005A6822F003028A42F7D8D868C5E90230E1
:102368008560DD603046BDE8F84000F0B5B87047DC
:10237800114407F1080C836863453FD0C268DA60EE
:10238800936041F001036B606950A7E7002B5FD1B0
:102398000A44D0E90213CB60996042F001036B60F4
:1023A800AA50B0E70A44D90707D454F8083CED1AF4
:1023B8001A44D5E90213CB60996042F001036B60BF
:1023C800274BBD601B6893429DD8264B3046196841
:1023D800FFF7F2FE97E71144CDE7142B08D9542BE9
:1023E8001DD80B0B03F16F0003F16E02C300A6E7C3
:1023F80003F15C0003F15B02C300A0E741F00103B5
:10240800C7E90455C5E902CC6B6069507BE7796878
:102418009210012404FA02F20A437A609EE7B3F5A7
:10242800AA7F06D8CB0B03F1780003F17702C3002B
:1024380085E740F25452934206D88B0C03F17D0095
:1024480003F17C02C3007AE74FF47E737E2276E7BD
:1024580041F001036B60016055E700BFA80200204E
:10246800B406002010080020082802D14FF480503C
:10247800704708B503F0BEFD162303604FF0FF3028
:1024880008BD00BF70B50F4B0F4DAB42A3EB05065F
:1024980007D0B610002455F8043B01349847A642EB
:1024A800F9D809F0F5FA094D094B5E1BAB424FEA22
:1024B800A60606D0002455F8043B01349847A642E6
:1024C800F9D870BDA4BA0000A4BA0000A4BA0000EC
:1024D800ACBA0000704700BF704700BF00207047CB
:1024E800024A0349034801F021BD00BF3001002022
:1024F80099680000100000200C4B4168994210B503
:10250800044601D004F0C4F9A168094B994202D0ED
:10251800204604F0BDF9E168064B994204D02046F4
:10252800BDE8104004F0B4B910BD00BFD4060020C7
:102538003C070020A4070020002070472DE9F8433D
:102548002A4C2B49DFF8AC90DFF8AC802B4FC4F84D
:102558003811002504230822294604F15C00284E7E
:10256800E360C4E90055C4E90455A5606566A56142
:10257800FEF7AAFF234B63670822294604F1C4002B
:10258800C4E90749C4E90987C4E91A55C4E91E55CD
:102598002567C4F8CC50C4F88050E662FEF794FF73
:1025A800194BC4F8DC30294604F16803082204F505
:1025B8009670C4F88430C4E92298C4E92476C4E942
:1025C8003455C4E93855C4F8D850C4F83451C4F85F
:1025D800E850FEF779FF04F1D003C4E93C98C4E958
:1025E8003E76C4F8EC30BDE8F88300BFD40600207E
:1025F800E9240000516B0000796B0000B96B000002
:10260800DD6B00000900010012000200F8B5254B3F
:10261800D3F838310646002B3CD0234FD7E9013494
:10262800013B04D51DE05A1C04F1680419D0B4F923
:102638000C50013B002DF6D11C4BE360C4E9015559
:10264800C4E9045565662560A5610822294604F198
:102658005C00FEF739FFC4E90C55C4E91155204662
:10266800F8BD3D680DB12F46D8E74FF4D671304616
:1026780003F0AAFD044680B10423C0E900530C30DE
:102688002946A0604FF4D0722546FEF71DFF3C6036
:102698002F46C3E7FFF752FFBFE70C2338603360CC
:1026A800DDE700BFD4060020300100200100FFFF55
:1026B800436B03B17047044B044AD3F83831426383
:1026C800002BF7D13AE700BFD4060020012500000F
:1026D800704700BF704700BF024A0349002001F05D
:1026E80025BC00BF30010020E5240000024A034950
:1026F800002001F01BBC00BF300100204125000074
:102708000FB400B5074983B004AB086853F8042B2D
:102718004168019301F0B0F803B05DF804EB04B030
:10272800704700BF080000200EB400B582B003ABAC
:10273800416853F8042B019301F09EF802B05DF84C
:1027480004EB03B0704700BF08B50021044604F04D
:10275800FFF8034B1B6803B19847204609F096F928
:102768000C080020002301461A46184604F082BAD5
:102778002DE9F04F8946ADF52F7D80460693B9F9CE
:102788000C30496E980407D443F4005321F40051E7
:10279800A9F80C30C9F864108B04C1F3403000F17B
:1027A800C080164616F8013B1193002B00F0F986FD
:1027B800DFF8C8A10A9086460490834603900790E4
:1027C8001AF8034014F008046FD1252B5DD1317835
:1027D8002246A1F12503701C532B61D8DFE813F0C2
:1027E800540060006000600060004F0460006000FA
:1027F800600060006000A500A500A500A500A50078
:10280800A500A500A500A500A50060006000600067
:102818006000600060006000600060006000BF034E
:10282800B0006000B00060006000600060003B0421
:1028380060006000B303600060006000600060003A
:102848006000600060008C03600060004404600069
:10285800600060006000600060006000C803D20390
:10286800B000B000B000D403DC03600060001604C0
:10287800600022047906370460006000BC03600031
:102888007B06600060008C030646D9F80430002BF4
:102898003BDDD9F8003016F8012C1978914221D087
:1028A80003980DF52F7DBDE8F08FD9F804200FE0CF
:1028B800D9F800301A781AF80220170703F1010333
:1028C8000ED5D9F80420013AC9E900320BF1010B01
:1028D800002AEDDC4946404604F00CFA0028E7D00F
:1028E80002960AE00133C9F80030D9F8043002969C
:1028F800013B0BF1010BC9F80430029E16F8013BAD
:102908001193002B7FF45CAFCAE74946404604F0B8
:10291800F1F90028BDD0039B1BB1B9F80C305B0658
:10292800BED54FF0FF330393BAE714F08F0FB7D13A
:1029380002EB820201EB4202303A7178064648E720
:1029480002900425D9F80430002B00F3328349465D
:102958004046059204F0CEF90028DCD114F0400F6F
:10296800059A00F026836B1E032B00F2AA86DFE887
:1029780013F0B0016B01B300070000BF6105000050
:102988004046059201F0F6FA059A03680C93531E27
:10299800B3F5AE7F44F4F06440F289846FF4AE710D
:1029A80053180F9340F25D12002556ABCDE90D5533
:1029B8002E460B95CDF820804946A846A9461F46C5
:1029C8002546099314460A681078A0F12B0CBCF12F
:1029D8004E0F50D8DFE81CF037024F0037024F0087
:1029E8004F0081027800780078007800780078003D
:1029F8007800780078004F004F004F004F004F00DC
:102A08004F004F003D027600760076001B02100250
:102A18004F004F00C0014F004F004F004F006C02A5
:102A28004F0069024F004F004F0064024F004F00F3
:102A38004F004F024A024F004F004F004F004F0017
:102A48004F004F003D027600760076001B02100210
:102A58004F004F00C0014F004F004F004F006C0265
:102A68004F0069024F004F004F0064024F004F00B3
:102A78004F004F024A020C9B93F800C0844514D1C2
:102A8800AB0512D525F42075CDF82C8007F8010B7D
:102A9800013C4868013800280BF1010B486040F3FD
:102AA800038301320A60002C8DD143462C46DDF8A1
:102AB800208035464E468946002B00F0618124F47B
:102AC80080745DE12B05F0D519EB060CEDD1664657
:102AD80025F4C075E146D9E7531EB3F5AE7F88BF2C
:102AE8006FF4AE714FF000068CBF5718002756AB35
:102AF80088BF40F25D124946D946B346049E059701
:102B080044F4586409931D461746086890F800C0B5
:102B1800ACF12B034D2B5FD8DFE813F00F025E00FA
:102B28000F025E005E00B9021801180118011801B1
:102B3800180118011801080208025E005E005E0014
:102B48005E005E005E005E004E004E004E004E00CD
:102B58004E004E005E005E005E005E005E005E009D
:102B68005E005E005E005E005E005E005E005E006D
:102B78005E005E005E00FC015E005E005E005E00BE
:102B88005E005E005E005E004E004E004E004E008D
:102B98004E004E005E005E005E005E005E005E005D
:102BA8005E005E005E005E005E005E005E005E002D
:102BB8005E005E005E00FC010A2E0DDD24F4386420
:102BC80005F801CB4B68013B002B4B6040F3788242
:102BD80001300860013F98D104965E46CB4689468D
:102BE800E10507D5099B9D4200F2B484099B9D42EB
:102BF8003FF456AE14F0100240F07282049B079F17
:102C080009992A704046B847069BA20603F10407B3
:102C180000F16082630700F17C8414F0010240F047
:102C28005882A40740F15582B84B0799994240460B
:102C3800049B099900F0208500F0C6FF0B46069A10
:102C48001168C1E9000347E2D9F800100B78002A9F
:102C58001AF8033008BF4FF0FF32E00704F01006FF
:102C680003F0080300F17282002E00F02A83002B83
:102C78007FF443AED9F804300131013B012AC9F889
:102C88000010C9F8043008BF0BF1010B3FF435AE52
:102C98000124154613E0D9F800301A781AF80220F2
:102CA800160703F1010312D4C9F80030D9F804302B
:102CB8000134013BA542C9F8043000F05D84002BC3
:102CC800E9DC4946404604F015F80028E3D0A3445F
:102CD80013E6002A08BF4FF0FF3204F01003E007A4
:102CE8000B9300F12D83D9F800000B99037816ACEB
:102CF800E35C002900F09282002B3FF4D1ADD9F8B3
:102D080004300130013B012AC9F80000C9F8043039
:102D180018BF164610D117E0D9F800301A78A25C0F
:102D280001338AB1C9F80030D9F804300135013BC4
:102D3800AE42C9F8043007D0002BEDDC49464046C6
:102D480003F0D8FF0028E7D0AB44D6E5704B24F455
:102D5800386433F9166033E7002E40F0C681B8F1C5
:102D6800000F40F09C8205F4E06CBCF5E06F00F0C9
:102D78001B84DDF820802C46002335464E468946C4
:102D8800013E012E40F25A846A1E062A40F25B83F5
:102D9800E00540F1B881610500F15E8417F8011C77
:102DA800652907F1FF350BF1FF3602D0452940F0C0
:102DB80086834A46404600F0C5FD14F0100340F0F3
:102DC80074832B70B3460D9B002B40F0AC8300221C
:102DD8000999404602F09AF8069BE20706460F4614
:102DE80003F1040540F14E831B68C3E90067039BA8
:102DF80006950133039380E52B0503D519EB060CE3
:102E08003FF465AE022E7FF450AE03263EE62B0556
:102E18003FF55AAE05F4A06CBCF5806F05D06B0584
:102E28007FF543AEB8F1000FA3D0AB0504D40B9BDC
:102E3800A8EB0303CDE90D3725F4786545F4C07593
:102E48004FF0000822E62B067FF52FAE25F080050F
:102E58001CE62B0503D519EB060C3FF438AEB9F187
:102E6800010F7FF422AE4FF002090FE6072E7FF420
:102E78001CAE08260AE605F4186CBCF5807F7FF4C2
:102E880014AEB8F1010F7FF410AE25F4807530232D
:102E980007F8013B45F40065013C4FF00008F5E5F3
:102EA800062E7FF402AE0726F0E52B05B2D4FCE52A
:102EB800B9F1000F40F02081B8F1000F05D105F4F9
:102EC800E06CBCF5E06F00F07483012E02D0042E94
:102ED8007FF4EBAD0136F6B2D8E5EB057FF5F4AD3E
:102EE8000F9B25F0800508F10108002B3FF4D0ADB9
:102EF8000F9B013B0F93CCE5029044F40074034B05
:102F080007931023049303251CE500BF615D0000AF
:102F1800EC03000004F4C063B3F5007F7FF45CAEFB
:102F280024F4007444F4A064102649E6834B33F972
:102F38001660082E3FF742AE4EE623067FF54CAEEC
:102F480024F080043CE6029044F001047C4B079393
:102F5800082304930325F5E402900225F2E4029085
:102F680044F00104774B07930A2304930325E9E40B
:102F7800029044F040040025D9F80430002B3FF7B4
:102F8800F2ACE4E40290EDE723077FF489AC7178B2
:102F980044F0040406461CE4D9F804300290002BDF
:102FA800684B07934FF0000304934FF003057FF736
:102FB800CEACD9F800100B781AF8033018077FF553
:102FC800D2AC16460A4606E0C9F8002013781AF86B
:102FD8000330190718D5D9F80430013B002B0BF141
:102FE800010BC9F8043002F10102EDDC4946404604
:102FF80003F080FE00287FF48EACD9F80020137807
:103008001AF803301907E6D43246ACE425077FF4F2
:1030180047AC71786C2900F0A68244F0010406469A
:10302800FFF7D7BBE70602903FF567AC069B66073C
:1030380053F8042B00F17482E507C2F800B004D4F9
:10304800A40702D54FEAEB715160069355E402904C
:1030580044F4087453E721077FF422AC717844F0F4
:1030680002040646FFF7B5BB014616A8059200F014
:1030780011FF44F04004059A029001257CE72243A1
:103088007FF40EAC717810240646FFF7A2BB230527
:103098007FF596AD16B944F400740826620540F130
:1030A800C78124F4B0648BE50898059103F022FEEB
:1030B800059900287FF4F9AC002C7FF484ACF4E483
:1030C8004046049103F016FE049900283FF482ADAF
:1030D80082E5069B1B681860039B069701330393E0
:1030E800099BED1A3544AB4407E4032E3FF4F2AED6
:1030F800052E3FF4EFAED8E4B9F1020F7FF4E5AE48
:103108004FF00309C2E414F010027FF4F6AB3A70F2
:1031180004F4C062B2F5806F7FF455AE0B9A9A4200
:103128003FF455AED21A0DF2AB239F4228BF0DF2E1
:10313800AA270549384604F0D1F948E6EC0300000F
:10314800615D0000656800009C020000002E40F0F0
:10315800AF81069F57F804CB002B56D10025CDE947
:1031680005672B46644615461A46089202F05EF833
:10317800089A90423FF4CFABD9E9003156A80646E9
:10318800099013F8010BB0540139C9E900310A9BC1
:10319800032B02F1010714AE02D13368042B04D0CB
:1031A800082200213046FEF78FF9099A00963B461F
:1031B8002146404603F016FD421C0A903FF4ABAB93
:1031C800002840F0DC81206003F008FD002840F072
:1031D8001E82BB44013D059B002B40F0F081043466
:1031E8001A46D9F80430002B40F3FF81D9F8003093
:1031F8001B781AF803301F0701D4002DB5D1DDE97B
:103208000567A446002E40F0B481039B069701335E
:1032180003930023CCF80030FFF76FBB069F57F8E5
:10322800041B002B3FF43CABD9F80430013BC9F830
:103238000430431CC9F800300E46037806F8013BF9
:10324800012A23D08D18059111E0D9F800100B78C8
:10325800E35C83B3D9F80430013BC9F804304B1C54
:10326800C9F800300B7806F8013BAE4223D0D9F8F4
:103278000430002BE9DC4946404603F03BFD0028BA
:10328800E3D00599B1423FF446AB751A039B069704
:10329800013303930023AB443370FFF72EBB2C4656
:1032A80043463546DDF820804E46894607E400232C
:1032B8000F93FFF779BB0599751A002DE6D1FFF733
:1032C800EFBA069F57F8046B002B40F0D381D9F86A
:1032D8000430013BC9F804304B1CC9F800303446AF
:1032E8000B7804F8013B012A00F0CB81B51813E0F4
:1032F800D9F800301A781AF80220100716D4D9F82D
:103308000420013AC9F804205A1CC9F800201B7887
:1033180004F8013BAC4209D0D9F80430002BE7DCB3
:103328004946404603F0E6FC0028E1D0A61BB3441A
:10333800039B06970133039300232370FFF7DDBA3D
:10334800002B40F0E480069B53F8047B06930A9C0C
:10335800CDF820B000259346CDF8148001F066FF23
:10336800A8423FF4D8AAD9E9003256A813F8011B9D
:103378004155013A032CC9E9003205F101050DF167
:10338800480803D1D8F80030042B04D008220021C3
:103398004046FEF799F839460598CDF800802B4647
:1033A80056AA03F01FFC411C04463FF4B4AA0028A7
:1033B80040F0C3803860064614AB08220021184646
:1033C8000993FEF781F8B449099B05983246D1F86C
:1033D800E06010A9B04701280CBF9DF840600026A6
:1033E80016AB9B5D002B00F0EC80089B032C2B4454
:1033F800089300F0A9800BF1FF3B0B9B03B904373E
:10340800D9F80430002B4FF0000571DDBBF1000F37
:10341800A4D1DDF820B0DDF814800A940B9B002BB2
:103428007FF46BAA3B60039B01330393FFF765BAF4
:10343800059B24F4607413B1013B059301370BF12C
:10344800010BFFF7BFBB022D40F22C81032D3FF487
:103458009FAC043DEEB2F5433D4405943C463746E7
:103468001E4614F8011D4A46404600F06BFAAC426D
:10347800F7D133460BF1FF3B3E46ABEB060B274635
:10348800059C85E4069BA2071B68059345D4024664
:103498000B4607F0D5FF002840F0F6803046394645
:1034A80008F02CF8059B1860A1E4B346FFF725BA8D
:1034B800002B7FF422AA069F0DF1440C4EE64A46E3
:1034C800404600F03FFAABF1020617F8021CBD1E99
:1034D8006FE402903AE5714B07930A230290049334
:1034E8000325FFF72FBAD9F80430002B3FF736AF82
:1034F8000598494603F0FEFB002887D0DDF820B088
:10350800DDF814800A94002D88D0FFF704BA11AFB3
:103518001DE7069B1B681880DEE5C3E9006766E4C3
:10352800A2F800B091E50E9F0A230022791C4046BC
:1035380003F094F90D9BC21AF5E5821CD3D03E68BE
:10354800731C7FF439AF4BE7D8F80030042B7FF4B5
:1035580052AF52E715F8011C4A464046013D00F0BB
:10356800F1F9FFF743BBB17844F002040236FFF7E4
:1035780030B90697FFF7C1B9AB44FFF7BEB90A9B4C
:10358800023342D0206803F029FB00283FD10A9B70
:10359800032BBB447FF41EAE3368042B7FF41AAEB2
:1035A80019E60393FFF77CB925F4F0650126FFF7C8
:1035B8006DBA25F4F0654FF00109FFF767BA0022EC
:1035C8000FE6DDF820B0DDF814800A94002D3FF4F2
:1035D80025AF56AB5C19013D14F8011D4A4640461B
:1035E80000F0B0F9002DF6D118E749464046089298
:1035F80003F080FB089A00283FF4F8ADDDE9056781
:10360800A446002A7FF487A9FCE53A46E9E53D4649
:10361800A446DDE90567002D3FF4F4AD099CCDF81B
:1036280014C02C44013D14F8011D4A46404600F0E0
:1036380089F9002DF6D1DDF814C0E3E5099CA7420D
:103648007FF62EA917F8011D4A46404600F07AF980
:10365800A742F7D1FFF724B9099CA7427FF620A912
:1036680017F8011D4A46404600F06CF9A742F7D109
:10367800FFF716B934465BE602F08CFD0B46FFF700
:10368800DEBA0BF1010B53E6054800F0DBF9059BA8
:103698001860FFF7ACBB00BF3C010020615D000073
:1036A80018030000099B9F427FF6FAA817F8011D2E
:1036B8004A46404600F046F9099B9F42F6D1FFF77B
:1036C800EFB8012A38BF012204F0100714F00104F2
:1036D800164615D1002F6BD1069C134654F8041BCF
:1036E800CDF800900122404600F012FB00283FF47C
:1036F80012A9039B0694013383440393FFF7FDB893
:10370800002F46D00023059300252C460A9DCDF8AE
:10371800208001F08BFDA0423FF4FDA8D9E90031DB
:1037280056AA13F8010B10550139032D04F10108AD
:10373800C9E9003114AC02D12268042A04D0082255
:1037480000212046FDF7C0FE56AA05990898009466
:10375800434603F047FA421C05463FF4DCA800281C
:103768003CD1C344013E27B9059B1F60059B043328
:103778000593D9F80430002B4FF000043FDD002EEC
:10378800C7D1DDF820800A95002F3FF44CAEFFF733
:10379800B4B8069B53F8042BCDE90523B4E7C9F860
:1037A8000010404649461C44F61A03F0A3FA78B9BB
:1037B800D9E900239E4202EB0301F0DC9B1B324453
:1037C8003444C9F80430C9F80020A344FFF795B879
:1037D800002C3FF4A0A8A344FFF78FB8831C09D09E
:1037E8000328C34402D12368042B00D0013E002FD4
:1037F800BCD0BEE7D9F804100029444689DC0898F3
:10380800494603F077FA0028B9D0DDF820800A95F8
:10381800002C7FF480A8002F3FF405AEFFF76DB8A9
:1038280030B50E4B0446186883B00D46134608B1F0
:10383800426B32B12A46214603B0BDE83040FEF75C
:1038480097BFCDE90003FEF733FFDDE900032A4601
:10385800214603B0BDE83040FEF78ABF08000020CB
:1038680010B4044C84461346206810BC0A466146CE
:10387800FEF77EBF0800002030B5044685B008B1C9
:10388800456B2DB1204605B0BDE83040FEF770BF4E
:10389800CDE902230191FEF70BFFDDE9022301992F
:1038A800204605B0BDE83040FEF762BF38B5074D89
:1038B8000022044608462A6008F0DAF8431C00D0C3
:1038C80038BD2B68002BFBD0236038BD480800208A
:1038D80001F140032DE9F0410C46096B994214D0DF
:1038E800666B77003A4603F07FFA054630B300EB83
:1038F800060801463246404603F08CF8C4E90C57E6
:10390800C4F800800020BDE8F0814FF4806102F027
:103918005BFC98B194F842304FF48062C4E90C0221
:1039280080F8FF3394F8413080F8FE3394F8402053
:1039380080F8FD2300F2FD332360E3E74FF0FF300A
:10394800E1E700BF70B54C1C2BD00E460546144667
:1039580010B1436B002B4CD0B4F90C3023F020028B
:103968005807A28106D4D9061BD51B0734D442F0C8
:103978000402A281226B6368F6B2AAB1626B9A4212
:1039880009DD23685A1E226003F8016C636801335D
:103998006360304670BD21462846FFF799FF00282E
:1039A800EFD04FF0FF36F4E7226921682AB18A4246
:1039B80003D211F8012CB2421ED02246C4E90E13DC
:1039C80004F1400003232063636302F8426F01237C
:1039D800C4E90023304670BD2146284602F08AFA21
:1039E8000028DED1B4F90C20A06022F00802A06102
:1039F800BDE7FEF75DFEAFE701390133C4E9001307
:103A0800C7E700BF10B4044C03460A46206810BC40
:103A18001946FFF797BF00BF0800002038B5074DCB
:103A2800074C2C1BA41005D0013C55F8043D9847C1
:103A3800002CF9D1BDE8384008F034B8BCBA000011
:103A4800B8BA0000004870470000C07F2DE9F04F69
:103A580085B092465B4A039089461E460D46294624
:103A680015F8014B135D13F00803F8D12D2C7DD008
:103A78002B2C41D002934FF0FF326FF00043CDE979
:103A88000023002E43D1302C79D00A27B0463E4679
:103A9800DDE900013A46434607F00CFE00238E4656
:103AA800834619461846A44610E08E4508BF83454C
:103AB8004CD000FB08F307FB0133A0FB07010B44C4
:103AC800201843EBE471012315F801CBACF1300465
:103AD800092C05D9ACF14104192C1ED8ACF13704D6
:103AE800A64222DDB3F1FF3FEED083457EEB010312
:103AF800DBD24FF0FF33E7E72C7802938D1C6FF091
:103B080000434FF0FF31CDE90013002EBBD0102E3B
:103B18003ED037464FEAE678BAE7ACF16104192C93
:103B280003D8ACF15704A642DCDC5A1C13D0029A25
:103B380012B1404261EB4101BAF1000F03D0002BF2
:103B48003DD1CAF8009005B0BDE8F08FA242B0DAC6
:103B58004FF0FF33B8E7039A22231360BAF1000F3E
:103B680028D0DDE9000105F1FF39EAE700934FF0BD
:103B7800004001232C78CDE901038D1C81E72B78C7
:103B880003F0DF03582B0ED00827B0463E467FE7E8
:103B9800302C03D037464FF0000879E72B7803F034
:103BA800DF03582BF6D110276C784FF00008023548
:103BB8003E466DE7DDE9000105B0BDE8F08FCDE9CF
:103BC8000001CEE76105000040E700BF10B4044CD7
:103BD80084461346206810BC0A46614636E700BF93
:103BE8000800002010B4044C84461346206810BC1A
:103BF8000A4661462AE700BF0800002000000000CE
:103C080000000000000000000000000000000000AC
:103C1800000000000000000000000000000000009C
:103C2800000000000000000000000000000000008C
:103C3800000000000000000030B490F800F020F010
:103C480007016FF0000C10F0070491F820F040F025
:103C580048804FF000046FF00700D1E9002391F885
:103C680040F000F1080082FA4CF2A4FA8CF283FAD0
:103C78004CF3A2FA8CF34BBBD1E9022382FA4CF243
:103C880000F10800A4FA8CF283FA4CF3A2FA8CF340
:103C9800E3B9D1E9042382FA4CF200F10800A4FA4E
:103CA8008CF283FA4CF3A2FA8CF37BB9D1E90623A0
:103CB80001F1200182FA4CF200F10800A4FA8CF21A
:103CC80083FA4CF3A2FA8CF3002BC6D0002A04BF67
:103CD80004301A4612BAB2FA82F200EBD20030BCB3
:103CE8007047D1E9002304F00305C4F100004FEA4E
:103CF800C50514F0040F91F840F00CFA05F562EAD6
:103D080005021CBF63EA050362464FF00004AAE7F8
:103D18002DE9F04F83B002FB03FA0C9C0093BAF133
:103D2800000F43D0914607468B4610B1436B002BDA
:103D380040D0B4F90C20636E900405D442F40052CC
:103D480023F40053A28163669904C3F340322DD44F
:103D58006568A3892168002DAEBF2A4662601546B2
:103D68009B072AD4564610E002F054FE23682B44E1
:103D7800214623603846AB44A6EB050802F0BAFF9B
:103D8800002856D1D4E900154646B5422A46584679
:103D9800EAD3324602F03EFED4E90031891B3344AF
:103DA800C4E90031009803B0BDE8F08F002003B0EB
:103DB800BDE8F08FFEF77CFCBBE7524528BF5246B2
:103DC8005846154602F026FE2368216B2B442360D3
:103DD80063685B1B6360AAEB050859B1B8F1000F73
:103DE800E0D004F14003994202D03846FEF740FA89
:103DF800002323635D444646CDF80490002ED1D0BD
:103E0800D4F81090D4F80080D4F814B02560C4E930
:103E180004562146384602F06DFF6368C4F80080F6
:103E280000226260C4E9049B1D44F21A48B9164690
:103E3800E4E705EB0A00801BB0FBF9F003B0BDE82E
:103E4800F08F03EB0A00DDF80490801BB0FBF9F05B
:103E5800ADE700BF10B5064C82B0844620680093D9
:103E680013460A466146FFF753FF02B010BD00BF74
:103E780008000020936810B514461BB918460023A3
:103E8800636010BD03F090F90023A3600023636012
:103E980010BD00BF70B50C785E2C864624D0002378
:103EA800481C9C46002263F3070263F30F2263F366
:103EB800174263F31F620EF58071734643F8042BB3
:103EC8008B42FBD174B18CF001010EF80410451C33
:103ED80015F8013C2D2B0ED05D2B0AD01BB11C46CA
:103EE8002846F2E7013870BD01234C78881C9C46AF
:103EF800D8E7284670BD90F801C0BCF15D0FEED040
:103F08006445ECDC661C02300EEB060202F8011B6D
:103F1800A2EB0E03013B9C45F8DCACEB0403013B30
:103F28006445A8BF00230235F418D1E72DE9F8430A
:103F38000746884616464FF00009D6E90154013D68
:103F480010D4A389012B08D9B4F90E3001332146C6
:103F5800384602D0C04749EA0009013D6B1C04F10C
:103F68006804EED13668002EE7D14846BDE8F883EC
:103F7800F0307047004870472C0200200048704716
:103F88002C020020000000002DE9F04F9FB00E46E3
:103F9800002107921A9100220021CDE904128346DC
:103FA80031461991884611F8012B2D2A5ED801A0B7
:103FB80050F822F091410000754000007540000063
:103FC8007540000075400000754000007540000015
:103FD8007540000075400000AB3F0000AB3F00009B
:103FE800AB3F0000AB3F0000AB3F00007540000056
:103FF80075400000754000007540000075400000E5
:1040080075400000754000007540000075400000D4
:1040180075400000754000007540000075400000C4
:1040280075400000754000007540000075400000B4
:1040380075400000AB3F000075400000754000006F
:104048007540000075400000754000007540000094
:104058007540000075400000754000007540000084
:104068000F47000075400000274700000021089115
:10407800302A00F095804FF0000A2F2A174640F2A8
:10408800E8844FF0000940464D464C4613E00130A5
:10409800082C1990C8BF09EB89090778C6BF02EB3D
:1040A8004902A2F13009A3F130052F2F04F10104D0
:1040B8003A4640F3B88005EB8503392F02EB4303FA
:1040C800E5DDAE49012201F04FFF00287DD1199AA4
:1040D8001346013219925F78002C40F07985302F11
:1040E80040F0738513461846013319931F78302F13
:1040F800F9D0C2F101021044A7F13103082B37D8D7
:10410800431CDDF864800E930023A7F1300E0124D0
:104118004746099305EB85050EEB450500207B1CFA
:1041280019937F78A7F13002092A00F2DE82199FDD
:1041380001309646002AF2D00128D8BF04F1010CBC
:1041480040F3C08600EB040C0CF1FF3103E05D0086
:10415800A14200F0B786082C05EB850304F10104A1
:10416800F5DD102CDCBF09EB89094FEA4909EFE7B7
:10417800652F40F0D78200230122CDE909320E9342
:104188005AEA000340F0BD82079B4FF000084FF049
:10419800000903B11E60404649461FB0BDE8F08FD4
:1041A80098F8012002F0DF02582A18BF434600F0B1
:1041B8000D84013319931A78302AFAD09846002AC8
:1041C80000F07B824FF0010A57E7002009940E9017
:1041D8000A90652F34D0452F32D000230F93002C3E
:1041E80077D15AEA000040F068820A9B002BCBD1B5
:1041F800692F00F05A8400F35384492F00F0558446
:104208004E2FC1D15E4919A803F08AF90028BBD006
:10421800199B1B78282B00F058855A4803F092FA0E
:10422800804689464DE25549012201F09DFE00284D
:10423800CBD1199B09945A1C19925F780E9071E79B
:10424800002C9DD0199E731C199377782B2F00F0A2
:1042580055822D2F00F04C824FF0000CA7F1300151
:10426800092900F23E82302F199B0AD10133199394
:104278001F78302FFAD0A7F13102082AADD8A7F15C
:1042880030015A1C19925F782F2F40F3F583964618
:104298000B9308E0013219929EF801702F2FA3F1B9
:1042A800300106DD964601EB8103392F07EB430306
:1042B800F0DD0B9BD21A082A40F3DE8344F61F6315
:1042C8000F93BCF1000F8AD00F9B5B420F93002C19
:1042D80087D0099A1346002A08BF23460993DDE9C7
:1042E8000E23102CA3EB020328460B93A246A8BF6B
:1042F8004FF0100A06F090FD092C02460B46CDE956
:10430800042315DD204B03EBCA0353E9122306F0FF
:10431800FDFD064648460F4606F07EFD02460B4662
:104328003046394606F03CFC0F2CCDE904012DDC63
:104338000B9B002B00F01A830B9B40F34F82162B2C
:1043480040F3A1830B9AC4F1250393421EDB0E4D63
:10435800C4F10F0405EBC401DDE90423D1E9000130
:1043680006F0D4FD0B9B1C1B05EBC405D5E9002307
:1043780006F0CCFD80468946A3E100BFA4020000F8
:10438800B402000018030000780600000B9BA4EBA1
:104398000A0A9A44BAF1000F40F3CA811AF00F00D2
:1043A8000AD0354901EBC001DDE90423D1E9000158
:1043B80006F0ACFDCDE904013AF00F0A3FD0BAF59A
:1043C8009A7F00F38983BAF1100F4FEA2A16DFF8B3
:1043D800ACA040F3C284DDE90401002357469946A6
:1043E800F20704D5D7E9002306F090FD01237610E3
:1043F800012E09F1010907F10807F1D10BB1CDE947
:104408000401059BA3F1547305930AEBC90ADDE97E
:104418000423DAE9000106F079FD194BCDE904011E
:104428000B400A4617498B4200F2568316498B42C5
:1044380040F22884154B4FF0FF32CDE904230023C6
:104448000A93099A009523464146584603F026FAEE
:104458001490002800F04083DDE90E329B1A0B9A75
:10446800002AA8BF00230E934FF0000A22EAE27345
:10447800CDF824A01593E0E0780600006807000056
:104488000000F07F0000A07C0000907CFFFFEF7F21
:10449800D21A1F2AA4EB020400F32E8201239340B0
:1044A800984600250A9B26443C44A7421E443B46A6
:1044B800A8BF2346B342A8BF3346002B02DDE41A47
:1044C800F61AFF1A0E9B002B00F3BC81002C00F398
:1044D800D2810B9B002B00F30582002E00F3F6819E
:1044E800002F08DD51463A46584603F0C1FB824684
:1044F800002800F0F4811A994A46584603F050FC07
:104508000990002800F0EB81099A0023D1680F91E7
:10451800D360514603F024FC0028C0F2E983059FCC
:1045280000F063830998514603F0DAFD00224FF04A
:10453800804304460D4606F065FF002800F07281AE
:104548000F9B002B40F0E481049B002B40F06D8210
:10455800C7F31303002B40F00C82AB4B002220461C
:10456800294606F045FF002840F03683A74B204631
:104578002946002206F0CAFC03460C46CDE912344F
:1045880001F100430C900D93A14EA24B3E409E4278
:10459800DDE90C4500F0C3810A9B23B3B6F1D46F63
:1045A80021D8DDE9127896A3D3E90023384641469D
:1045B80006F028FFA0B14146384606F07FFF0128E3
:1045C80038BF012006F028FC0F9BCDE91201002B13
:1045D80040F0AA8201F1004316901793DDE91645D1
:1045E80005F1D6639D1BDDE910783846414603F096
:1045F80093FC02460B462046294606F087FC3A46BD
:10460800434606F0CDFACDE904010C460A9B23B9CE
:104618007F4B23409E4200F0B5811A99584603F01B
:10462800E3F84946584603F0DFF85146584603F088
:10463800DBF80999584603F0D7F8149C5846616886
:1046480003F0ACF88146002800F049812269023263
:1046580004F10C0192000C3002F0DCF91CAB019360
:104668001BAB0093DDE904345846CDE910341A46F3
:10467800234603F0D7FC1A90002800F00581012199
:10468800584603F0B7F98246002800F028811B9BA2
:10469800002BC0F217810E9A159E9F180A9A1C9C2F
:1046A8009B1A23445C4A013B9342C4F13604FFF64B
:1046B800EFAE012300259846F4E64FF000084FF0CE
:1046C8000009079A0AB1199B1360089B002B3FF455
:1046D80062AD09F100439946404649461FB0BDE81E
:1046E800F08F002319960F9379E501230A9370E55B
:1046F8004FF0010CB31C1993B778AFE54FF0000CDD
:10470800F8E700249EE50022089208F101011991BA
:1047180098F80120002A3FF437AD8846A8E4012222
:104728000892F2E7452F3FF426AD01230A9358E596
:104738003FF485AECAF1000616F00F020AD0374BD7
:1047480003EBC203DDE90401D3E9002306F008FD09
:10475800CDE9040136113FF472AE1F2E36DC16F097
:104768001003DDE9040118BF6A232D4F0A930023C3
:10477800F20704D5D7E9002306F0C8FB0123761019
:1047880007F10807F4D10BB1CDE904010A9BA3B1E5
:10479800DDE90401C1F30A52C2F16B03002B0ADD03
:1047A8001F2B40F313830020342B049040F34D83D8
:1047B8004FF05C7305936A230A93DDE90401002234
:1047C800002306F00BFE00283FF43BAE2223CBF873
:1047D80000304FF000084FF0000972E71633FFF67B
:1047E800D5ADDDE90E329A1A0C4B03EBC203DDE9B5
:1047F8000401D3E9002306F0B3FC8046894660E74C
:104808000000C0FFFFFFDF410000F03F0000E03F75
:104818000000F07F0000E07F02FCFFFF7806000048
:1048280038040000B44B20462946002206F06EFBEF
:104838000F9BCDE91201002B65D101F100430C90CB
:104848000D93A1E651461A46584603F0B7F9824639
:10485800002844D001461A9A584603F0F9F800286F
:104868003DD00F901A99584602F0BEFF0F9B1A933D
:10487800002C7FF72EAE1A992246584603F0F8F915
:104888001A9000287FF425AE4F4605462223DFF80C
:104898006C92CBF800304FF000082946584602F0D9
:1048A800A3FF3946584602F09FFF5146584602F08A
:1048B8009BFF1499584602F097FF0999584602F051
:1048C80093FFFEE6159A0E9FD61AE7E6494632464A
:1048D800584603F0CDF9814600287FF401AE1A9DB1
:1048E8004F46D3E74946159A584603F067F981467B
:1048F80000287FF4F2ADF2E7814AD31A012202FAC6
:1049080003F59046CEE5DDE91234CDE90C343BE6FB
:104918007C4C0023CDE90C34CDE9123434E6A7F100
:1049280054730593DDE904452046294603F0F4FA5B
:10493800DDE90C2306F0EAFA2B46224606F030F9A8
:104948006E4F714B0F409F42CDE904017DD9DDE9DF
:10495800100103F15473994202D1B0F1FF3FBED068
:104968006A4C4FF0FF33CDE9043456E6DDE904899B
:10497800A7E6674C0023CDE90C34624C0023CDE94F
:10498800123401E6DDE912563146284606F0AAFE41
:1049980006F08EFA02460B462846314606F0FEF827
:1049A8000F9B049AC4F313041343234306460F468C
:1049B80029D14BA3D3E9002306F01AFD00283FF4C0
:1049C8002CAE4F46DDE904891A9D66E70293089BE1
:1049D80001931AAB00934F4A1BAB19A9584600F034
:1049E8005DFE10F00F0504463FF467AE062D40F05B
:1049F800A08008F10103199300234FF000084FF03D
:104A0800000908935DE638A3D3E9002306F0F0FC1B
:104A18000028D6D136A3D3E900233046394606F01C
:104A280005FD00283FF4F9ADCBE7049B012BA0D18D
:104A3800002F9ED14F461A9C22232546CBF80030E2
:104A48004FF000084FF0000927E701F1547405946E
:104A5800DCE531490122404601F086FA002800F0E1
:104A6800AB804FF00009CDE909994D464846CDF88D
:104A780038904C46FFF7AFBB44F61F639942A8BF76
:104A880019460F911DE40B98244901EBC001DDE99B
:104A98000423D1E9000106F039FA8046894610E678
:104AA8006E2F3FF4AFABFFF76FBB1D4919A802F09B
:104AB80037FD00283FF468AB199B1A49013B19A838
:104AC800199302F02DFD10B9199B01331993DFF8E2
:104AD8002C904FF00008F4E52223CBF80030F6E7DD
:104AE8009535A094FFFFCF3F9535A094FFFFDF3F9A
:104AF80035E5AF350000E03F0000E03F0000F07F03
:104B0800E2FBFFFF0000F03FFFFF9F7CFFFFEF7F0E
:104B18000000F0BF10040000A402000078060000A6
:104B2800A8020000AC020000DDE91234CDE9163419
:104B380054E51A9A3AB135211CA803F01BFB1A99BF
:104B4800584602F051FE013D1B9B042D00F2D8810E
:104B5800DFE805F0032C291E03001C9A049203F2D7
:104B680033421D9B23F4801343EA02530593E10566
:104B780002D543F000430593A74A1A40DDE90489AA
:104B8800002A7FF49EAD01F035FA2223036098E5F0
:104B98004FF0FF326FF00043CDE90423E3057FF5C2
:104BA800E5AE059BE5E79C4B0593F7E7DDE91C12AD
:104BB8001D9BCDE90412DAE7199A134601321992BE
:104BC8005F7805468146FFF78ABA0020FFF794BA56
:104BD80009940E90FFF7A6BA904C0023CDE90C3447
:104BE8008F4C0023CDE91234CEE40F988D493B4613
:104BF800C4464F46AE46DDE91089C3F313020028C8
:104C080045D08A4200F0EA80ADBB049A1CEA020F44
:104C180034D040464946049303F07EF90A9B002BA2
:104C280000F04081049BC3F30A53C3F16B03002BCC
:104C380040F342811C0504F17F53002203F5401321
:104C480006F064F902460B464046494605F0A8FFBF
:104C580080468946744B40464946002206F056F97C
:104C68006D4B0B4080468946002B7FF4ADAE222366
:104C7800CBF80030A8E61EEA030FCAD10A9B002B26
:104C8800E8D1A1E602F154730593FFF7D8BB002AD7
:104C980067D1DDE904452246002C40F08F800A9A4E
:104CA800002A40F0EC8025F00044240D2405A4F5EA
:104CB80080146FEA14536FEA035305934FF0FF33E0
:104CC8000493DDE904891A9DE7E5584919A81CAA47
:104CD80002F040FC05287FF4A0AA1D9B43F0FF4387
:104CE80043F4E00305931C9B0493DDE90489E8E49D
:104CF800DDE904010F9B03434F46DDE91089BDD16F
:104D0800C1F31303002BB9D121F00044240D24056D
:104D1800B4F1D66F2546B1D9099A536913B9136905
:104D2800012BABDD09990122584602F0A1FF51463B
:104D3800099003F015F80028A0DD0A9B002BB6D0D7
:104D4800A5F580136FEA13536FEA035305934FF0E9
:104D5800FF330493DDE904897CE74FF00009FFF78E
:104D680050BB75BB049A1CEA020F87D040464946DF
:104D7800049303F0D1F80A9B002B6ED0049BC3F375
:104D88000A53C3F16B03002B40F399801C0504F10F
:104D98007F53002203F5401306F0B8F802460B468D
:104DA8004046494605F0FAFE00220023804689461F
:104DB80006F014FB00283FF44DAF3CE6BEF1000FAF
:104DC800D1D01EEA030F3FF459AFCFE74FF0FF32BF
:104DD80002FA03F3049A1A400492ECE40A9A04993A
:104DE800B2B10D4A1A40B2F1D46F11D8120DC2F106
:104DF8006B024FF0FF3000FA02F2914218D0BEF178
:104E0800000F7FF438AF11EA0C0F3FF437AF00E71B
:104E18004FF0FF32F1E700BF0000F07F0000E0BF75
:104E28000000E03FFFFF0F0000005039240400009D
:104E3800344A934259D0344A1A4002F580130593F4
:104E480000230493DDE9048918E7C2F14B024FF00F
:104E5800FF3393400B400593ADE402460B464046B2
:104E6800494605F09BFE1A9C00220023804689468D
:104E7800254606F0B3FA00283FF40FADDCE5224DD5
:104E88001D40B5F1D66F3FF65BAFB5F15C7F3FF6DD
:104E9800E1AE22231A9DCBF800304FF000084FF006
:104EA8000009FAE402460B464046494605F078FEFA
:104EB8001A9D80468946F0E402460B46C4E602463F
:104EC8000B466DE70E9B082C03440E9302DC6446E8
:104ED800FFF720B9BCF1100FDCBF09EB890902EB21
:104EE800490964460020FFF71AB90131A3D12223EA
:104EF8001A9DDFF81490CBF800304FF00008CCE48E
:104F0800002334E6FFFFEF7F0000F07F014BFFF73F
:104F18003BB800BF3C01002010B4044C8446134643
:104F2800206810BC0A466146FFF72EB8080000202A
:104F380010B4044C044B84460A46206810BC6146F1
:104F4800FFF722B8080000203C0100202DE9F047B7
:104F5800DFF88CA004461346DAF800000A4621461A
:104F6800FFF712F802460B4604460D4606F068FAAB
:104F780048BB2946204606F0C1FA20F000470646FD
:104F88001849384606F080FBD0B91649384606F06D
:104F98005DFBA8B925F00049134B4FF0FF322046BE
:104FA800494606F04DFA38B90F4B204649464FF0AE
:104FB800FF3206F027FA18B1DAF8003022221A6018
:104FC8003046BDE8F087002D084804DAFEF73AFDC0
:104FD80000F10046F4E7BDE8F047FEF733BD00BF37
:104FE80008000020FFFF7F7FFFFFEF7F180300000E
:104FF8002DE9F047DFF8A0A0284B04460A46DAF866
:1050080000002146FEF7C0FF02460B4604460D4647
:1050180006F016FA002833D12946204606F06EFA23
:1050280020F0004706461E49384606F02DFBE8B931
:105038001B49384606F00AFBC0B925F00049194B50
:105048004FF0FF322046494606F0FAF938B9154BB9
:10505800204649464FF0FF3206F0D4F930B1DAF86D
:10506800003022221A603046BDE8F08716F0FF4F64
:10507800F9D10D4B2B40002BF1D13046BDE8F0871C
:10508800002D0A4804DAFEF7DDFC00F10046EAE7E5
:10509800BDE8F047FEF7D6BC080000203C01002020
:1050A800FFFF7F7FFFFFEF7F0000F07F1803000006
:1050B8002DE9F041B1F90C300C46990796B008D5A6
:1050C80004F143030122C4E90432236016B0BDE8A9
:1050D800F081B4F90E100029064626DB6A4602F074
:1050E8003BF800281FDB019D05F47045A5F5005528
:1050F800B5FA85F54FF480686D094FF400674146AD
:10510800304601F061F8E8B1B4F90C30C4F8148005
:1051180043F0800320602061A3813DBB3B43A38112
:1051280016B0BDE8F081B4F90C3013F0800519D041
:105138004FF040080025414630462F4601F044F81C
:105148000028E1D1B4F90C309A05BFD423F0030349
:1051580004F1430243F002030121C4E90421A381BD
:105168002260B3E74FF480682F46C8E7B4F90E1001
:10517800304602F007F810B9B4F90C30CEE7A3892D
:1051880023F0030343F001031BB2C7E770B50C46D5
:10519800B1F90E10002996B015461E4614DB6A4672
:1051A80001F0DAFF00280FDB019901F47041A1F545
:1051B8000051B1FA81F14FF4806349094FF400605E
:1051C80031602B6016B070BDA18911F0800106D046
:1051D80000214023084631602B6016B070BD4FF4A3
:1051E8008063084631602B6016B070BD42B110B5BF
:1051F8000B491046144600F08FF818B9094810BD3D
:10520800084870470749204600F086F80028F5D07E
:105218000549204600F080F80028EFD0002010BD96
:10522800BC020000B802000018030000014B93F80C
:10523800280170473C01002041B110B50C462046BA
:105248000A4900F069F818B9094810BD08487047BC
:105258000749204600F060F80028F5D005492046A7
:1052680000F05AF80028EFD0002010BDBC02000062
:10527800B80200001803000001F0FF01102A2BDB20
:1052880010F0070F08D010F8013B013A8B422DD0DF
:1052980010F0070F42B3F6D1F0B441EA012141EA18
:1052A800014122F007047FF000070023F0E80256CE
:1052B800083C85EA010586EA010685FA47F5A3FA5E
:1052C80087F586FA47F6A5FA87F68EB9EED1F0BCCF
:1052D80001F0FF0102F0070232B110F8013B013A78
:1052E80083EA010313B1F8D10020704701387047F1
:1052F800002D06BF35460338073815F0010F07D1D2
:10530800013015F4807F02BF013015F4C03F013031
:10531800F0BC0138704700BF02780B78012A28BF1B
:105328009A4240F0D8806DE9044540EA0104CDE98D
:1053380002676FF0000C4FEA44721AB380EA010466
:1053480014F0070F6BD100F0070420F0070004F0F9
:10535800030521F007014FEAC505F0E8042314F01E
:10536800040FF1E804670CFA05F462EA040266EA3D
:1053780004060BD063EA0403624667EA040766463C
:1053880004E000BFF0E80423F1E8046782FA4CF572
:1053980082EA0604A4FA8CF46CBB83FA4CF583EA1F
:1053A8000705A5FA8CF595B950E9022351E902677A
:1053B80082FA4CF582EA0604A4FA8CF483FA4CF5D6
:1053C80083EA0705A5FA8CF52543DBD09CB92DBAED
:1053D800B5FA85F424F0070427FA04F1DDE9026739
:1053E80023FA04F303F0FF0001F0FF01FDE8044590
:1053F800A0EB0100704724BAB4FA84F424F007043F
:1054080026FA04F1DDE9026722FA04F202F0FF004D
:1054180001F0FF01FDE80445A0EB0100704714F01E
:10542800030F3CD110F0030428D150F8082B51F891
:10543800083B82FA4CF582EA0305A5FA8CF55DB9BA
:1054480050F8042C51F8043C82FA4CF582EA030522
:10545800A5FA8CF5002DE8D02DBAB5FA85F424F01C
:10546800070423FA04F122FA04F202F0FF0001F023
:10547800FF01FDE80445A0EB010070474FEAC404B2
:1054880020F0030050F8082B21F0030151F8083BE5
:105498000CFA04F462EA040263EA0403C9E710F0B0
:1054A80003041DD0A1EB040120F00300E40750F829
:1054B800042B06D012D28B785FFAA2F4E41A06D134
:1054C8002BB1CB785FFAB2F4E41A00D133B9204695
:1054D8005DF8104B7047A2EB0300704701F104011F
:1054E80050F8042BCC0721F0030151F8043B48D8AD
:1054F80024D222F07F4482FA4CF594EA1325A5FAC7
:105508008CF50AD165B951F8043B84EA0204B4EB7E
:10551800036F0ED150F8042BEBE74FEA132355E045
:1055280035F07F454DD10878FDE80445C0F100000D
:1055380070474FEA126203F0FF0347E002EA1C4497
:1055480082FA4CF594EA1345A5FA8CF50AD165B9A7
:1055580051F8043B84EA0204B4EB034F0CD150F831
:10556800042BEBE74FEA134330E015EA1C4528D13A
:105578000B884FEA124229E04FEA124203EA1C4321
:1055880024E002F0FF0482FA4CF594EA1365A5FAC8
:105598008CF50AD165B951F8043B84EA0204B4EBEE
:1055A800032F09D150F8042BEBE74FEA13630DE002
:1055B80015F0FF0F05D10B684FEA122223F07F4345
:1055C80004E04FF00000FDE80445704712BA1BBA2A
:1055D80082FA4CF482EA0304A4FA8CF5B5FA85F44D
:1055E80002FA04F203FA04F34FEA1260FDE80445F4
:1055F800A0EB1360704700BF2DE9F0410469B4EBDC
:10560800611F05DC0023036100234361BDE8F081CD
:1056180000F114054E1111F01F0C05EB840E05EB7B
:10562800860321D055F8261004339E4521FA0CF143
:10563800CCF120082DD92F461A6802FA08F20A433D
:1056480047F8042B53F8041B9E4521FA0CF1F3D8B4
:10565800A31B9B00053B9B08013305EB830445F81E
:10566800231079B104340DE09E4588BF00F1100283
:10567800C8D953F8041B42F8041F9E45F9D8A41B47
:1056880005EB8404631B9B10AC420361BCD0BDE8EE
:10569800F08141610029B5D02C46E3E72DE9F04FB0
:1056A8000F6885B0CDE90020BA780393302A89467F
:1056B80040F0EB81FB1C1A78302A1C4603F10103E9
:1056C800F9D0E71B023FDFF8B88218F80230002B48
:1056D80000F0EE80237818F803304FF0000A5546A2
:1056E800002B00F07081264616F8013F18F80330A9
:1056F800002BF9D1A3490122304600F035FC83463E
:1057080000284CD03278002D00F0A081AB1B4FEA66
:10571800830B02F0DF02502A35464CD0C9F80060EE
:10572800BAF1000F74D12A1B013A072A514604DD49
:105738005210072A01F10101FADC019802F02EF853
:105748008246002800F05E8200F11406A542029607
:1057580066D90027B9460DE0202F1AD03A460437FB
:105768002B7818F8033003F00F03934049EA030934
:10577800A54258D015F8013D2E2BEDD1A542EBD30B
:1057880080490122284600F0EFFB0028F0D0202FA6
:10579800E4D1002246F8049B04279146E0E7002D57
:1057A80000F06481327802F0DF02AB1B502A4FEA26
:1057B800830B3546B2D16A782B2A00F045812D2A11
:1057C80040F0D2800120AA7818F802104A1E182A40
:1057D80005F1020600F2D280727818F8022010391A
:1057E80001365AB90CE001EB810116F8013F02EBD2
:1057F8004102A2F1100118F803200AB1192AF2DDBA
:1058080000B149428B44C9F80060BAF1000F8AD050
:10581800002F0CBF06250025284605B0BDE8F08FEF
:10582800029E4FF0000946F8049B029BF61AB61038
:10583800CAF81060484602F08BF8009B76011C6895
:10584800361AA64273DCC0F203810027009B9A68CF
:105858005A45C0F23A81009B5A685A454ADDA2EB84
:105868000B0B5C4500F39080DB68022B00F0DC80BA
:10587800032B00F04981012B40F0DA805C4540F0B1
:10588800D780012C08D0611E504602F0A1FC0028E8
:1058980000F0CE80009B5A6803990A60029A01239F
:1058A800CAF8103013600E9B6225C3F800A0B3E756
:1058B80034490122204600F057FB8246002840F078
:1058C8008480637818F80320651C002A7FD0302B69
:1058D8002C4640F0248114F8013F302BFBD018F8F7
:1058E8000330B3FA83FA01274FEA5A1A002B7FF4E0
:1058F800FAAE68E0012587B1009BDA68022A6ED00B
:10590800032A70D0012A06D1B90704D5029B1A6868
:105918001743FA076AD445F010050E9BC3F800A098
:10592800039B2846C3F800B005B0BDE8F08F361BCE
:105938003146504602F04CFC074678B1711E4A11B8
:10594800029B012753F8220001F01F0207FA02F216
:10595800024203D0B94200F3C980022731465046BB
:10596800FFF74AFEB34471E718F802104A1E182AD6
:1059780005F101064FF000007FF62EAF2E46CDE66A
:1059880060040000A40200000BF1FF36002F40F075
:10599800A580002E40F0A4807311029A06F01F061D
:1059A80052F823200123B34013425946504618BFEA
:1059B80047F00207FFF720FE009BA4EB0B0402252B
:1059C800D3F804B097E7264694E62378254603F0F3
:1059D800DF03502B00F09380C9F8005018E70F9BA5
:1059E800C3F101030F930F9B002B94D0DAF81070CA
:1059F800029A4FEA8709904602EB8706002003E0E7
:105A0800964242F8040C43D9944652F8041B4B1CA6
:105A1800F6D00131022DCCF8001079D014F01F0413
:105A280040F0A580212578E70F9B002B3FF434AF89
:105A38000198514601F0D8FE50250E9A00232846B9
:105A4800136005B0BDE8F08F0020BCE6AB4660E609
:105A5800A61B51460198324602F00AF900F11403D8
:105A6800ABEB060B824602930027EFE6727818F834
:105A78000210751C2E4600293FF44BAE16F8012F74
:105A880018F80230002BF9D140E6BC1C00271AE6B2
:105A9800DAF80820974244DA0AEB87017A1C0120D9
:105AA800022DCAF81020DDF80880486130D0002A9D
:105AB8006ADC0022CAF810200022CAF81420009BD1
:105AC8009A680BF1010B5A45ACDA0198514601F07E
